:100000000C9463000C948B000C948B000C943604BD
:100010000C9436040C9436040C948B000C948B00D6
:100020000C948B000C948B000C948B000C948B0024
:100030000C948B000C948B000C948B000C948B0014
:100040000C94EC030C948B000C94BA030C94940362
:100050000C948B000C948B000C948B000C948B00F4
:100060000C948B000C948B000000000024002700EF
:100070002A0000000008000201000003040700003D
:1000800000000000000000000000250028002B00F8
:1000900000000000230026002900040404040404D6
:1000A0000404020202020202030303030303010227
:1000B00004081020408001020408102001020408F6
:1000C0001020B004880711241FBECFEFD8E0DEBF98
:1000D000CDBF11E0A0E0B1E0E8EDFFE002C0059087
:1000E0000D92A834B107D9F722E0A8E4B1E001C02D
:1000F0001D92A335B207E1F710E0C2E6D0E004C0DC
:100100002197FE010E94BA07C136D107C9F70E94A4
:100110005B050C94DF070C940000CF92DF92EF9206
:10012000FF920F931F93CF93DF936C017A018B01A2
:10013000C0E0D0E0CE15DF0589F0D8016D918D01CA
:10014000D601ED91FC910190F081E02DC601099559
:10015000892B11F47E0102C02196ECCFC701DF91FB
:10016000CF911F910F91FF90EF90DF90CF90089566
:10017000FC01918D828D981761F0828DDF01A80FAF
:10018000B11D5D968C91928D9F5F9F73928F90E0D1
:1001900008958FEF9FEF0895FC01918D828D981740
:1001A00031F0828DE80FF11D858D90E008958FEF7D
:1001B0009FEF0895FC01918D228D892F90E0805C46
:1001C0009F4F821B91098F739927089587E991E0CA
:1001D0000E94DA0021E0892B09F420E0822F0895A3
:1001E000FC01848DDF01A80FB11DA35ABF4F2C91D4
:1001F000848D90E001968F739927848FA689B789A3
:100200002C93A089B1898C9180648C93938D848D7B
:10021000981306C00288F389E02D80818F7D80834A
:100220000895EF92FF920F931F93CF93DF93EC010A
:1002300081E0888F9B8D8C8D981305C0E889F989A2
:10024000808185FD24C0F62E0B8D10E00F5F1F4FBF
:100250000F731127E02E8C8DE8120CC00FB607FC2F
:10026000FACFE889F989808185FFF5CFCE010E9418
:10027000F000F1CF8B8DFE01E80FF11DE35AFF4F27
:10028000F0820B8FEA89FB898081806207C0EE894A
:10029000FF896083E889F98980818064808381E0B7
:1002A00090E0DF91CF911F910F91FF90EF90089513
:1002B000CF93DF93EC01888D8823C9F0EA89FB890D
:1002C000808185FD05C0A889B9898C9186FD0FC004
:1002D0000FB607FCF5CF808185FFF2CFA889B989D9
:1002E0008C9185FFEDCFCE010E94F000E7CFDF912A
:1002F000CF91089580E090E0892B29F00E94E600DC
:1003000081110C9400000895833081F028F481302D
:1003100099F08230A1F008958730A9F08830B9F0C3
:100320008430D1F4809180008F7D03C08091800063
:100330008F7780938000089584B58F7702C084B54D
:100340008F7D84BD08958091B0008F7703C0809128
:10035000B0008F7D8093B00008951F93CF93DF93FB
:10036000282F30E0F901EE58FF4F8491F901E25552
:10037000FF4FD491F901E656FF4FC491CC23C9F049
:10038000162F81110E948401EC2FF0E0EE0FFF1F69
:10039000EA57FF4FA591B4918FB7F894111105C09A
:1003A0009C91ED2FE095E92302C0EC91ED2BEC93AD
:1003B0008FBFDF91CF911F910895CF93DF9390E08E
:1003C000FC01E255FF4F2491FC01E656FF4F84915A
:1003D000882361F190E0880F991FFC01E859FF4FD5
:1003E000C591D491FC01EA57FF4FA591B4916111D9
:1003F00009C09FB7F8948881209582238883EC9167
:100400002E230BC0623061F49FB7F8943881822F9D
:10041000809583238883EC912E2B2C939FBF06C05D
:100420008FB7F894E8812E2B28838FBFDF91CF916F
:1004300008953FB7F89480918D0190918E01A0911D
:100440008F01B091900126B5A89B05C02F3F19F0F0
:100450000196A11DB11D3FBFBA2FA92F982F882744
:10046000820F911DA11DB11DBC01CD0142E0660F9F
:10047000771F881F991F4A95D1F708958F929F92F1
:10048000AF92BF92CF92DF92EF92FF926B017C010D
:100490000E9419024B015C01C114D104E104F10472
:1004A000F1F00E941902DC01CB0188199909AA090F
:1004B000BB09883E9340A105B10570F321E0C21A43
:1004C000D108E108F10888EE880E83E0981EA11C8F
:1004D000B11CC114D104E104F10419F7DDCFFF9080
:1004E000EF90DF90CF90BF90AF909F908F90089546
:1004F0002FB7F8946091890170918A0180918B01E6
:1005000090918C012FBF08950F931F93CF93DF938A
:10051000EC010E947802688779878A879B87E88147
:10052000F9810084F185E02DCE01099597FF17C070
:100530000E947802088519852A853B85DC01CB015C
:10054000801B910BA20BB30B0C811D812E813F816F
:1005500080179107A207B30710F38FEF9FEFDF918A
:10056000CF911F910F9108952091930130919401A3
:100570002817390771F49091910180919201981791
:1005800041F0E0919101F0E0E85BFE4F808190E066
:1005900008958FEF9FEF089508951F93CF93DF93F2
:1005A000DC015C962D913C915D972115310539F464
:1005B00081E090E013969C938E9312973DC05196E4
:1005C000ED91FC91529750969C915097892F809570
:1005D0001FB75E964C915E9741FB772770F941FDFE
:1005E0006095F8944081772311F0492B01C048238E
:1005F0004083E9012197F1F748E0508160FF02C094
:10060000592B01C058235083E9012197F1F76695D2
:10061000415099F7772321F090818923808303C08B
:100620008081982B90831FBF5C968D919C915D97E4
:100630000197F1F721E030E0C901DF91CF911F91DF
:10064000089520919301309194012817390771F48E
:10065000809192012091910190E0805C9F4F821BDC
:10066000910960E470E00E949207089580E090E0B4
:100670000895209193013091940128173907B9F416
:100680009091910180919201981789F0E0919101E8
:10069000F0E0E85BFE4F80812091910130E02F5F18
:1006A0003F4F2F7333272093910190E008958FEFF0
:1006B0009FEF0895E0919301F0919401E817F907F5
:1006C00069F4A389B4899C918589809589238C9349
:1006D000109294011092930181E0089580E00895B2
:1006E000CF93DF93009779F0FC0101900020E9F7A8
:1006F0003197AF01481B590BBC0187E991E00E947B
:100700008D00EC0102C0C0E0D0E042E050E060E2C9
:1007100071E087E991E00E948D008C0F9D1FDF91B1
:10072000CF9108950E94C0071F920F920FB60F92AB
:1007300011242F933F934F935F936F937F938F93E6
:100740009F93AF93BF93EF93FF9387E991E00E944C
:10075000F000FF91EF91BF91AF919F918F917F91A9
:100760006F915F914F913F912F910F900FBE0F901E
:100770001F9018951F920F920FB60F9211242F936E
:100780008F939F93EF93FF93E091A701F091A801BE
:100790008081E091AD01F091AE0182FD12C09081A7
:1007A0008091B0018F5F8F732091B101821751F05A
:1007B000E091B001F0E0E956FE4F958F8093B001D3
:1007C00001C08081FF91EF919F918F912F910F90A8
:1007D0000FBE0F901F9018951F920F920FB60F9299
:1007E00011242F933F938F939F93AF93BF93809147
:1007F000890190918A01A0918B01B0918C01309177
:10080000880123E0230F2D3720F40196A11DB11D8F
:1008100005C026E8230F0296A11DB11D2093880173
:100820008093890190938A01A0938B01B0938C01EE
:1008300080918D0190918E01A0918F01B0919001D6
:100840000196A11DB11D80938D0190938E01A093FF
:100850008F01B0939001BF91AF919F918F913F9184
:100860002F910F900FBE0F901F9018951F920F920F
:100870000FB60F9211242F933F934F935F936F9373
:100880007F938F939F93AF93BF93EF93FF93E091E9
:100890009301F0919401309709F451C0968DA6858B
:1008A000B785858591FF04C09C91892329F447C0B1
:1008B0009C91892309F043C0A389B4899C918589BF
:1008C000809589238C93868997890197F1F7608DAC
:1008D000718DA685B785558538E020E0CB0101975D
:1008E000F1F7822F90E095958795282F4C9145231D
:1008F00009F02068315091F7868D81FD2095809117
:10090000920190E001968F739927309191013817E9
:1009100049F0A0919201B0E0A85BBE4F2C93809368
:10092000920103C0868D8160868F828D938D0197A1
:10093000F1F7A389B4899C918589892B8C93FF91C8
:10094000EF91BF91AF919F918F917F916F915F9147
:100950004F913F912F910F900FBE0F901F901895C0
:1009600010929A011092990188EE93E0A0E0B0E015
:1009700080939B0190939C01A0939D01B0939E0155
:1009800024E031E0309398012093970125EC30E08A
:100990003093A4012093A30124EC30E03093A6010E
:1009A0002093A50120EC30E03093A8012093A7010B
:1009B00021EC30E03093AA012093A90122EC30E031
:1009C0003093AC012093AB0126EC30E03093AE01C4
:1009D0002093AD011092B0011092B1011092B201BA
:1009E0001092B301109237021092360280933802AF
:1009F00090933902A0933A02B0933B0284E191E0D4
:100A0000909335028093340210924B0210924A0266
:100A100010924D0210924C0210924F0210924E0210
:100A20001092510210925002609152026E7F6D7FBF
:100A3000609352026695617081E0682789E00E94A8
:100A4000AD0161E089E00E94DD01E7EBF0E0E491B7
:100A5000E0934402E3EAF0E0E491F0E0EE0FFF1FE0
:100A6000EA57FF4F859194919093460280934502F7
:100A700060E088E00E94DD018091520281FD04C0A7
:100A800061E088E00E94AD0188E080934002E6EBDF
:100A9000F0E0E491E0934102E2EAF0E0E491F0E07A
:100AA000EE0FFF1FE057FF4F859194919093430203
:100AB000809342020895CF93DF9300D000D000D0FE
:100AC000CDB7DEB7789484B5826084BD84B581608B
:100AD00084BD85B5826085BD85B5816085BD809109
:100AE0006E00816080936E00109281008091810081
:100AF0008260809381008091810081608093810079
:100B0000809180008160809380008091B10084603A
:100B10008093B1008091B00081608093B00080919B
:100B20007A00846080937A0080917A00826080935A
:100B30007A0080917A00816080937A0080917A00B7
:100B4000806880937A001092C10061E083E00E9487
:100B5000DD0161E082E00E94DD0161E084E00E944D
:100B6000DD0161E084E00E94AD0160E087E00E9469
:100B7000DD01E091A701F091A80182E08083E0917E
:100B8000A301F091A4011082E091A501F091A601CA
:100B90008FEC80831092AF01E091AB01F091AC013A
:100BA00086E08083E091A901F091AA0180818061B3
:100BB0008083E091A901F091AA01808188608083FF
:100BC000E091A901F091AA01808180688083E09181
:100BD000A901F091AA0180818F7D808310924F023C
:100BE00010924E0210924D0210924C0210924B0243
:100BF00010924A028DE991E0909351028093500245
:100C000090914002963108F057C02DEB30E03093C0
:100C10004B0220934A022BE931E030934D0220939E
:100C20004C022CE231E030934F0220934E0220918F
:100C30006800983050F031E09E3008F430E081E0F8
:100C400001C0880F3A95EAF701C084E0822B8093B7
:100C50006800983038F09E3040F0963148F020E03F
:100C600030E008C02DE630E005C02BE630E002C0E1
:100C70002CE630E03093480220934702983030F45D
:100C800081E001C0880F9A95EAF70EC0292F30E065
:100C90009E3018F42850310902C02E50310981E0ED
:100CA00001C0880F2A95EAF780934902809150028B
:100CB000909151020197F1F780914E0290914F026D
:100CC000892B21F1809193019091940122E084334A
:100CD0009207E1F0009711F00E945A0380915202AE
:100CE0008E7F80935202109292011092910184E3C0
:100CF00092E09093940180939301E0914702F091E8
:100D00004802908180914902892B808384E392E09C
:100D1000909396018093950149E7842E40E0942EAC
:100D200055EBC52E50E0D52E6BE9E62E6FE0F62E82
:100D30008091950190919601DC01ED91FC910480E8
:100D4000F581E02D0995892B09F4B9C083E291E082
:100D50000E9470030091950110919601C8010E94B4
:100D60008402FC0197FD0FC08D32910581F0C09780
:100D70000A9768F0D801ED91FC910680F781E02D8B
:100D8000C8010995EBCF80E090E0DC012CC020E0A9
:100D900030E0A901B12CE130F10509F096C0D8018D
:100DA000ED91FC910680F781E02DC80129833A83FB
:100DB0004B835C830995C8010E948402FC01C097A3
:100DC00029813A814B815C810A9728F3E130F10552
:100DD00011F3BB2009F499C088279927DC01821BF5
:100DE000930BA40BB50B9E838D8360E084E00E947F
:100DF000AD0131EAA32E30E0B32EAD81BE811A16CB
:100E00001B060CF058C00E9478022B013C0100E048
:100E100010E00E947802DC01CB0184199509A60933
:100E2000B7098A3F9105A105B105F0F4F401849159
:100E3000F6013490F5012490222079F081110E946E
:100E40008401822D90E0880F991F80579F4FFC01ED
:100E5000A591B4918C913822A9F561E070E080E011
:100E600090E00E943E02D5CF04301105A4F402E3C5
:100E700010E061E083E00E94AD01C7010197F1F746
:100E800060E083E00E94AD01C7010197F1F70150D6
:100E9000110979F7B8CF8D819E8101979E838D834B
:100EA00084E391E00E94700368EE73E080E090E0DC
:100EB0000E943E02A2CF61E084E00E94AD010E9448
:100EC0007A0136CF0F5F1F4FC8CFED32F105D1F059
:100ED000CF01C0970A9708F062CFAAE0B0E00E9465
:100EE000C5072F01FF0F66087708DC01CB01840DD1
:100EF000951DA61DB71D9C01AD0120533109410967
:100F000051094DCFBB24B3944ACFDA01C9016BCF4D
:100F100084E191E0909335028093340284E392E07F
:100F20000C945A0397FB072E16F4009407D077FD14
:100F300009D00E94A60707FC05D03EF49095819544
:100F40009F4F0895709561957F4F0895AA1BBB1B15
:100F500051E107C0AA1FBB1FA617B70710F0A61BB9
:100F6000B70B881F991F5A95A9F780959095BC01DA
:100F7000CD010895EE0FFF1F0590F491E02D099427
:100F800081E090E0F8940C94DF070E94D007A59FC1
:100F9000900DB49F900DA49F800D911D1124089574
:100FA000A29FB001B39FC001A39F700D811D1124AA
:100FB000911DB29F700D811D1124911D089510E0A7
:100FC000C2E6D0E004C0FE010E94BA072196C336F3
:080FD000D107C9F7F894FFCF27
:100FD8000000000011018D00DA00B800CC005801B3
:100FE80000000000CD028D0021033903B402CC02B9
:100FF8000D0A00526563696576656420636F6D6DDF
:10100800616E640052656C6561736564203120709F
:0810180061636B616765000074
:107800000C94343C0C94513C0C94513C0C94513CE1
:107810000C94513C0C94513C0C94513C0C94513CB4
:107820000C94513C0C94513C0C94513C0C94513CA4
:107830000C94513C0C94513C0C94513C0C94513C94
:107840000C94513C0C94513C0C94513C0C94513C84
:107850000C94513C0C94513C0C94513C0C94513C74
:107860000C94513C0C94513C11241FBECFEFD8E036
:10787000DEBFCDBF11E0A0E0B1E0ECE9FFE702C060
:1078800005900D92A230B107D9F712E0A2E0B1E065
:1078900001C01D92AD30B107E1F70E942D3D0C945F
:1078A000CC3F0C94003C982F959595959595959582
:1078B000905D8F708A307CF0282F295A8091C0000B
:1078C00085FFFCCF9093C6008091C00085FFFCCF60
:1078D0002093C6000895282F205DF0CF982F809127
:1078E000C00085FFFCCF9093C6000895EF92FF92F1
:1078F0000F931F93EE24FF2487018091C00087FD22
:1079000017C00894E11CF11C011D111D81E4E8164B
:1079100082E4F8068FE0080780E0180770F3E09132
:107920000401F091050109958091C00087FFE9CF1E
:107930008091C6001F910F91FF90EF9008950E94D3
:10794000763C982F8091C00085FFFCCF9093C600B5
:1079500091362CF490330CF09053892F089597555D
:10796000892F08951F930E949F3C182F0E949F3CCF
:107970001295107F810F1F9108951F93182F882350
:1079800021F00E94763C1150E1F71F9108951F935A
:10799000182F0E94763C803249F0809103018F5F5E
:1079A000809303018530C1F01F9108958091C0003C
:1079B00085FFFCCF84E18093C6008091C00085FFE5
:1079C000FCCF1093C6008091C00085FFFCCF80E102
:1079D0008093C6001F910895E0910401F091050184
:1079E00009951F9108950E94763C803241F0809164
:1079F00003018F5F80930301853081F008958091AA
:107A0000C00085FFFCCF84E18093C6008091C00058
:107A100085FFFCCF80E18093C6000895E0910401CA
:107A2000F09105010995089540E951E08823A1F0FE
:107A30002D9A28EE33E0FA013197F1F721503040CA
:107A4000D1F72D9828EE33E0FA013197F1F7215064
:107A50003040D1F7815061F708953F924F925F9285
:107A60006F927F928F929F92AF92BF92CF92DF924E
:107A7000EF92FF920F931F93CF93DF93000080E16B
:107A80008093C4001092C50088E18093C10086E015
:107A90008093C2005098589A259A81E00E94143D24
:107AA00024E1F22E9EE1E92E85E9D82E0FE0C02ECA
:107AB00010E1B12EAA24A394B1E49B2EA6E58A2E50
:107AC000F2E57F2EE0E26E2E79E4572E63E5462E36
:107AD00050E5352E0E94763C8033B1F18133B9F107
:107AE000803409F46FC0813409F476C0823409F41B
:107AF00085C0853409F488C0803531F1823521F1A3
:107B0000813511F1853509F485C0863509F48DC0BC
:107B1000843609F496C0843709F403C1853709F423
:107B200072C1863709F466C0809103018F5F80932C
:107B30000301853079F6E0910401F0910501099582
:107B40000E94763C803351F60E94F33CC3CF0E94E2
:107B5000763C803249F78091C00085FFFCCFF092DF
:107B6000C6008091C00085FFFCCF9092C600809136
:107B7000C00085FFFCCF8092C6008091C00085FFC9
:107B8000FCCF7092C6008091C00085FFFCCF609250
:107B9000C6008091C00085FFFCCF5092C600809146
:107BA000C00085FFFCCF4092C6008091C00085FFD9
:107BB000FCCF3092C6008091C00085FFFCCFB09210
:107BC000C60088CF0E94763C863808F4BDCF0E945C
:107BD000763C0E94F33C7ECF0E94763C803809F4CC
:107BE0009CC0813809F40BC1823809F43CC1883942
:107BF00009F48FC080E00E94C73C6CCF84E10E94F2
:107C0000BD3C0E94F33C66CF85E00E94BD3C0E94D3
:107C1000F33C60CF0E94763C809306010E94763C44
:107C2000809307010E94F33C55CF0E94763C80333D
:107C300009F41DC183E00E94BD3C80E00E94C73C66
:107C400049CF0E94763C809309020E94763C809343
:107C5000080280910C028E7F80930C020E94763C79
:107C6000853409F415C18091080290910902892B8D
:107C700089F000E010E00E94763CF801E85FFE4FDA
:107C800080830F5F1F4F80910802909109020817AF
:107C9000190788F30E94763C803209F045CF809125
:107CA0000C0280FF01C16091060170910701660F0F
:107CB000771F7093070160930601A0910802B091AD
:107CC00009021097C9F0E8E0F1E09B01AD014E0F09
:107CD0005F1FF999FECF32BD21BD819180BDFA9A17
:107CE000F99A2F5F3F4FE417F50799F76A0F7B1F4B
:107CF00070930701609306018091C00085FFFCCF5F
:107D0000F092C6008091C00085FFFCCFB092C60003
:107D1000E1CE83E00E94C73CDDCE82E00E94C73CFA
:107D2000D9CE0E94763C809309020E94763C8093D3
:107D300008028091060190910701880F991F909386
:107D40000701809306010E94763C853409F4A6C0A1
:107D500080910C028E7F80930C020E94763C8032D0
:107D600009F0B8CE8091C00085FFFCCFF092C6002C
:107D7000609108027091090261157105B9F140E046
:107D800050E080910C02A82FA170B82FB27011C0E2
:107D9000BB2309F45CC0E0910601F0910701319624
:107DA000F0930701E09306014F5F5F4F46175707B7
:107DB000E8F4AA2369F3F999FECF209106013091E6
:107DC000070132BD21BDF89A90B58091C00085FFB2
:107DD000FCCF9093C6002F5F3F4F30930701209355
:107DE00006014F5F5F4F4617570718F38091C00099
:107DF00085FDE5CE8091C00085FFF8CFE0CE81E023
:107E00000E94C73C67CE0E94763C803209F08CCE3F
:107E10008091C00085FFFCCFF092C6008091C00029
:107E200085FFFCCFE092C6008091C00085FFFCCFAB
:107E3000D092C6008091C00085FFFCCFC092C600E2
:107E40008091C00085FFFCCFB092C60043CEE09188
:107E50000601F091070194918091C00085FFFCCF4D
:107E60009093C6009CCF80E10E94C73C33CE0E9415
:107E7000763C0E94763C182F0E94763C112309F430
:107E800083C0113009F484C08FE00E94C73C22CE29
:107E900080910C02816080930C02E5CE80910C02EF
:107EA000816080930C0259CF809107018823880F4D
:107EB000880B8A2180930B02809106019091070123
:107EC000880F991F90930701809306018091080203
:107ED00080FF09C080910802909109020196909359
:107EE000090280930802F894F999FECF1127E091D6
:107EF0000601F0910701C8E0D1E08091080290915D
:107F00000902103091F40091570001700130D9F34B
:107F100003E000935700E89500915700017001308D
:107F2000D9F301E100935700E89509901990009169
:107F3000570001700130D9F301E000935700E89534
:107F40001395103498F011270091570001700130FB
:107F5000D9F305E000935700E895009157000170B0
:107F60000130D9F301E100935700E895329602976A
:107F700009F0C7CF103011F00296E5CF112480919F
:107F8000C00085FFB9CEBCCE8EE10E94C73CA2CD19
:0C7F900085E90E94C73C9ECDF894FFCF0D
:027F9C00800063
:040000030000780081
:00000001FF