:100000000C9463000C948B000C948B000C94C00235
:100010000C94C0020C94C0020C948B000C948B00C6
:100020000C948B000C948B000C948B000C948B0024
:100030000C948B000C948B000C948B000C948B0014
:100040000C9476020C948B000C948B000C948B0017
:100050000C948B000C948B000C948B000C948B00F4
:100060000C948B000C948B000000000024002700EF
:100070002A0000000000250028002B0000000000DE
:1000800023002600290004040404040404040202DA
:100090000202020203030303030301020408102007
:1000A0004080010204081020010204081020000012
:1000B0000008000201000003040700000000000027
:1000C00000000F057C0511241FBECFEFD8E0DEBF76
:1000D000CDBF11E0A0E0B1E0E0ECFBE002C0059094
:1000E0000D92A031B107D9F721E0A0E1B1E001C044
:1000F0001D92AC37B207E1F710E0C2E6D0E004C0D1
:100100002197FE010E94AE05C136D107C9F70E94B2
:100110003A030C94D3050C940000CF92DF92EF9237
:10012000FF920F931F93CF93DF936C017A018B01A2
:10013000C0E0D0E0CE15DF0589F0D8016D918D01CA
:10014000D601ED91FC910190F081E02DC601099559
:10015000892B11F47E0102C02196ECCFC701DF91FB
:10016000CF911F910F91FF90EF90DF90CF90089566
:10017000833081F028F4813099F08230A1F0089525
:100180008730A9F08830B9F08430D1F480918000B4
:100190008F7D03C0809180008F77809380000895C9
:1001A00084B58F7702C084B58F7D84BD089580911A
:1001B000B0008F7703C08091B0008F7D8093B00036
:1001C00008951F93CF93DF93282F30E0F901E25574
:1001D000FF4F8491F901E656FF4FD491F901EA5798
:1001E000FF4FC491CC23C9F0162F81110E94B80093
:1001F000EC2FF0E0EE0FFF1FEE58FF4FA591B491EA
:100200008FB7F894111105C09C91ED2FE095E9236B
:1002100002C0EC91ED2BEC938FBFDF91CF911F913A
:100220000895CF93DF9390E0FC01E656FF4F2491B1
:10023000FC01EA57FF4F8491882361F190E0880F19
:10024000991FFC01E859FF4FC591D491FC01EE586C
:10025000FF4FA591B491611109C09FB7F8948881AF
:10026000209582238883EC912E230BC0623061F4A9
:100270009FB7F8943881822F809583238883EC91EF
:100280002E2B2C939FBF06C08FB7F894E8812E2B9E
:1002900028838FBFDF91CF9108953FB7F894809165
:1002A000550190915601A0915701B091580126B582
:1002B000A89B05C02F3F19F00196A11DB11D3FBF9E
:1002C000BA2FA92F982F8827820F911DA11DB11D2C
:1002D000BC01CD0142E0660F771F881F991F4A9528
:1002E000D1F708952FB7F8946091510170915201A0
:1002F00080915301909154012FBF08950F931F9344
:100300000E9472016093650170936601809367019A
:1003100090936801E0915D01F0915E010084F185A8
:10032000E02D8DE591E0099597FF1FC00E947201B5
:10033000009165011091660120916701309168017B
:10034000DC01CB01801B910BA20BB30B009161016F
:10035000109162012091630130916401801791072F
:10036000A207B307B8F28FEF9FEF1F910F91089587
:1003700020915B0130915C012817390771F490914D
:10038000590180915A01981741F0E0915901F0E02C
:10039000E05FFE4F808190E008958FEF9FEF08951A
:1003A00008951F93CF93DF93DC015C962D913C91D0
:1003B0005D972115310539F481E090E013969C9307
:1003C0008E9312973DC05196ED91FC9152975096A5
:1003D0009C915097892F80951FB75E964C915E97A0
:1003E00041FB772770F941FD6095F89440817723B0
:1003F00011F0492B01C048234083E9012197F1F70F
:1004000048E0508160FF02C0592B01C0582350833F
:10041000E9012197F1F76695415099F7772321F08B
:1004200090818923808303C08081982B90831FBF94
:100430005C968D919C915D970197F1F721E030E0FA
:10044000C901DF91CF911F91089520915B013091F7
:100450005C012817390771F480915A0120915901E4
:1004600090E0805C9F4F821B910960E470E00E94E5
:100470008605089580E090E0089520915B01309119
:100480005C0128173907B9F49091590180915A01FC
:10049000981789F0E0915901F0E0E05FFE4F80810C
:1004A0002091590130E02F5F3F4F2F733327209366
:1004B000590190E008958FEF9FEF0895E0915B015F
:1004C000F0915C01E817F90769F4A389B4899C915C
:1004D0008589809589238C9310925C0110925B0131
:1004E00081E0089580E008950E94B4051F920F9264
:1004F0000FB60F9211242F933F938F939F93AF9337
:10050000BF938091510190915201A0915301B091FC
:1005100054013091500123E0230F2D3720F4019630
:10052000A11DB11D05C026E8230F0296A11DB11D16
:10053000209350018093510190935201A093530155
:10054000B09354018091550190915601A0915701AB
:10055000B09158010196A11DB11D80935501909352
:100560005601A0935701B0935801BF91AF919F914D
:100570008F913F912F910F900FBE0F901F90189564
:100580001F920F920FB60F9211242F933F934F9308
:100590005F936F937F938F939F93AF93BF93EF93EB
:1005A000FF93E0915B01F0915C01309709F451C039
:1005B000968DA685B785858591FF04C09C9189237A
:1005C00029F447C09C91892309F043C0A389B489C9
:1005D0009C918589809589238C9386899789019739
:1005E000F1F7608D718DA685B785558538E020E0DF
:1005F000CB010197F1F7822F90E095958795282FF1
:100600004C91452309F02068315091F7868D81FD8A
:10061000209580915A0190E001968F73992730912F
:100620005901381749F0A0915A01B0E0A05FBE4FC0
:100630002C9380935A0103C0868D8160868F828DB2
:10064000938D0197F1F7A389B4899C918589892BB2
:100650008C93FF91EF91BF91AF919F918F917F917B
:100660006F915F914F913F912F910F900FBE0F901F
:100670001F901895CF93DF9300D000D000D0CDB756
:10068000DEB7789484B5826084BD84B5816084BD12
:1006900085B5826085BD85B5816085BD80916E0020
:1006A000816080936E001092810080918100826051
:1006B000809381008091810081608093810080918E
:1006C00080008160809380008091B100846080937D
:1006D000B1008091B00081608093B00080917A0079
:1006E000846080937A0080917A00826080937A009F
:1006F00080917A00816080937A0080917A0080688E
:1007000080937A001092C10061E083E00E941101A1
:1007100061E082E00E94110160E087E00E94110127
:100720001092780110927701109276011092750163
:1007300010927401109273018DE991E090937A0107
:100740008093790190916901963108F057C02DEBA3
:1007500030E030937401209373012BE931E0309342
:100760007601209375012CE231E0309378012093DB
:10077000770120916800983050F031E09E3008F405
:1007800030E081E001C0880F3A95EAF701C084E0CB
:10079000822B80936800983038F09E3040F096317C
:1007A00048F020E030E008C02DE630E005C02BE640
:1007B00030E002C02CE630E03093710120937001EC
:1007C000983030F481E001C0880F9A95EAF70EC0A6
:1007D000292F30E09E3018F42850310902C02E50E5
:1007E000310981E001C0880F2A95EAF780937201F0
:1007F0008091790190917A010197F1F780917701C9
:1008000090917801892B21F180915B0190915C019D
:1008100021E08D359207E1F0009711F00E945E0211
:1008200080917B018E7F80937B0110925A01109200
:1008300059018DE591E090935C0180935B01E0911B
:100840007001F0917101908180917201892B8083F8
:1008500021EA222E20E0322E3BECE32E37E0F32E6D
:100860008DE591E00E942502892BB9F480E090E0AB
:10087000892BB1F30E940000F3CF8D329105B1F0C6
:10088000C0970A9798F0E0915D01F0915E010680B3
:10089000F781E02D8DE591E009950E947E01FC0134
:1008A00097FFEBCF80E090E0DC012DC020E030E04E
:1008B000A901D12CE130F10509F08EC0E0915D0174
:1008C000F0915E010680F781E02D8DE591E02983AE
:1008D0003A834B835C8309950E947E01FC01C0979B
:1008E00029813A814B815C810A9720F3E130F1053F
:1008F00009F3DD2009F490C088279927DC01821BC9
:10090000930BA40BB50B9E838D839DE8C92E90E0BD
:10091000D92EED81FE811E161F060CF0A7CF0E9476
:1009200072014B015C0100E010E00E947201DC01E9
:10093000CB0188199909AA09BB09803D9740A105F7
:10094000B10550F5E5EBF0E08491F1017490F6010A
:100950006490662071F081110E94B800E62DF0E0ED
:10096000EE0FFF1FE458FF4FA591B4918C917822B0
:1009700081F50E944D012B013C010E944D01DC01DB
:10098000CB0184199509A609B709883E9340A105B2
:10099000B10508F0CACFF1CF04301105A4F404E684
:1009A00010E061E083E00E94E100C7010197F1F7E8
:1009B00060E083E00E94E100C7010197F1F7015078
:1009C000110979F7ACCF8D819E8101979E838D832C
:1009D000A0CF0F5F1F4FCDCFED32F105D1F0CF018A
:1009E000C0970A9708F06ACFAAE0B0E00E94B90564
:1009F0008F01FF0F220B330BDC01CB01800F911F06
:100A0000A21FB31F9C01AD012053310941095109B7
:100A100055CFDD24D39452CFDA01C90174CF10929F
:100A2000600110925F0188EE93E0A0E0B0E0809357
:100A3000610190936201A0936301B093640184E02B
:100A400091E090935E0180935D0110927401109289
:100A50007301109276011092750110927801109234
:100A6000770110927A011092790160917B016E7F7B
:100A70006D7F60937B016695617081E068278CE0F3
:100A80000E94E10061E08CE00E941101E6EAF0E0E2
:100A9000E491E0936D01E2E9F0E0E491F0E0EE0F23
:100AA000FF1FEE58FF4F8591949190936F018093B3
:100AB0006E0160E08BE00E94110180917B0181FD5D
:100AC00004C061E08BE00E94E1008BE0809369014B
:100AD000E5EAF0E0E491E0936A01E1E9F0E0E49115
:100AE000F0E0EE0FFF1FE458FF4F85919491909333
:100AF0006C0180936B01089584E091E090935E0116
:100B000080935D018DE591E00C945E0297FB072ECA
:100B100016F4009407D077FD09D00E949A0507FCCF
:100B200005D03EF4909581959F4F089570956195FD
:100B30007F4F0895AA1BBB1B51E107C0AA1FBB1F13
:100B4000A617B70710F0A61BB70B881F991F5A9559
:100B5000A9F780959095BC01CD010895EE0FFF1F78
:100B60000590F491E02D099481E090E0F8940C94C4
:100B7000D3050E94C405A59F900DB49F900DA49F1E
:100B8000800D911D11240895A29FB001B39FC00153
:100B9000A39F700D811D1124911DB29F700D811DA9
:100BA0001124911D089510E0C2E6D0E004C0FE01BA
:100BB0000E94AE052196C336D107C9F7F894FFCF3E
:100BC00000000000D1018D0025023D02B801D001D6
:107800000C94343C0C94513C0C94513C0C94513CE1
:107810000C94513C0C94513C0C94513C0C94513CB4
:107820000C94513C0C94513C0C94513C0C94513CA4
:107830000C94513C0C94513C0C94513C0C94513C94
:107840000C94513C0C94513C0C94513C0C94513C84
:107850000C94513C0C94513C0C94513C0C94513C74
:107860000C94513C0C94513C11241FBECFEFD8E036
:10787000DEBFCDBF11E0A0E0B1E0ECE9FFE702C060
:1078800005900D92A230B107D9F712E0A2E0B1E065
:1078900001C01D92AD30B107E1F70E942D3D0C945F
:1078A000CC3F0C94003C982F959595959595959582
:1078B000905D8F708A307CF0282F295A8091C0000B
:1078C00085FFFCCF9093C6008091C00085FFFCCF60
:1078D0002093C6000895282F205DF0CF982F809127
:1078E000C00085FFFCCF9093C6000895EF92FF92F1
:1078F0000F931F93EE24FF2487018091C00087FD22
:1079000017C00894E11CF11C011D111D81E4E8164B
:1079100082E4F8068FE0080780E0180770F3E09132
:107920000401F091050109958091C00087FFE9CF1E
:107930008091C6001F910F91FF90EF9008950E94D3
:10794000763C982F8091C00085FFFCCF9093C600B5
:1079500091362CF490330CF09053892F089597555D
:10796000892F08951F930E949F3C182F0E949F3CCF
:107970001295107F810F1F9108951F93182F882350
:1079800021F00E94763C1150E1F71F9108951F935A
:10799000182F0E94763C803249F0809103018F5F5E
:1079A000809303018530C1F01F9108958091C0003C
:1079B00085FFFCCF84E18093C6008091C00085FFE5
:1079C000FCCF1093C6008091C00085FFFCCF80E102
:1079D0008093C6001F910895E0910401F091050184
:1079E00009951F9108950E94763C803241F0809164
:1079F00003018F5F80930301853081F008958091AA
:107A0000C00085FFFCCF84E18093C6008091C00058
:107A100085FFFCCF80E18093C6000895E0910401CA
:107A2000F09105010995089540E951E08823A1F0FE
:107A30002D9A28EE33E0FA013197F1F721503040CA
:107A4000D1F72D9828EE33E0FA013197F1F7215064
:107A50003040D1F7815061F708953F924F925F9285
:107A60006F927F928F929F92AF92BF92CF92DF924E
:107A7000EF92FF920F931F93CF93DF93000080E16B
:107A80008093C4001092C50088E18093C10086E015
:107A90008093C2005098589A259A81E00E94143D24
:107AA00024E1F22E9EE1E92E85E9D82E0FE0C02ECA
:107AB00010E1B12EAA24A394B1E49B2EA6E58A2E50
:107AC000F2E57F2EE0E26E2E79E4572E63E5462E36
:107AD00050E5352E0E94763C8033B1F18133B9F107
:107AE000803409F46FC0813409F476C0823409F41B
:107AF00085C0853409F488C0803531F1823521F1A3
:107B0000813511F1853509F485C0863509F48DC0BC
:107B1000843609F496C0843709F403C1853709F423
:107B200072C1863709F466C0809103018F5F80932C
:107B30000301853079F6E0910401F0910501099582
:107B40000E94763C803351F60E94F33CC3CF0E94E2
:107B5000763C803249F78091C00085FFFCCFF092DF
:107B6000C6008091C00085FFFCCF9092C600809136
:107B7000C00085FFFCCF8092C6008091C00085FFC9
:107B8000FCCF7092C6008091C00085FFFCCF609250
:107B9000C6008091C00085FFFCCF5092C600809146
:107BA000C00085FFFCCF4092C6008091C00085FFD9
:107BB000FCCF3092C6008091C00085FFFCCFB09210
:107BC000C60088CF0E94763C863808F4BDCF0E945C
:107BD000763C0E94F33C7ECF0E94763C803809F4CC
:107BE0009CC0813809F40BC1823809F43CC1883942
:107BF00009F48FC080E00E94C73C6CCF84E10E94F2
:107C0000BD3C0E94F33C66CF85E00E94BD3C0E94D3
:107C1000F33C60CF0E94763C809306010E94763C44
:107C2000809307010E94F33C55CF0E94763C80333D
:107C300009F41DC183E00E94BD3C80E00E94C73C66
:107C400049CF0E94763C809309020E94763C809343
:107C5000080280910C028E7F80930C020E94763C79
:107C6000853409F415C18091080290910902892B8D
:107C700089F000E010E00E94763CF801E85FFE4FDA
:107C800080830F5F1F4F80910802909109020817AF
:107C9000190788F30E94763C803209F045CF809125
:107CA0000C0280FF01C16091060170910701660F0F
:107CB000771F7093070160930601A0910802B091AD
:107CC00009021097C9F0E8E0F1E09B01AD014E0F09
:107CD0005F1FF999FECF32BD21BD819180BDFA9A17
:107CE000F99A2F5F3F4FE417F50799F76A0F7B1F4B
:107CF00070930701609306018091C00085FFFCCF5F
:107D0000F092C6008091C00085FFFCCFB092C60003
:107D1000E1CE83E00E94C73CDDCE82E00E94C73CFA
:107D2000D9CE0E94763C809309020E94763C8093D3
:107D300008028091060190910701880F991F909386
:107D40000701809306010E94763C853409F4A6C0A1
:107D500080910C028E7F80930C020E94763C8032D0
:107D600009F0B8CE8091C00085FFFCCFF092C6002C
:107D7000609108027091090261157105B9F140E046
:107D800050E080910C02A82FA170B82FB27011C0E2
:107D9000BB2309F45CC0E0910601F0910701319624
:107DA000F0930701E09306014F5F5F4F46175707B7
:107DB000E8F4AA2369F3F999FECF209106013091E6
:107DC000070132BD21BDF89A90B58091C00085FFB2
:107DD000FCCF9093C6002F5F3F4F30930701209355
:107DE00006014F5F5F4F4617570718F38091C00099
:107DF00085FDE5CE8091C00085FFF8CFE0CE81E023
:107E00000E94C73C67CE0E94763C803209F08CCE3F
:107E10008091C00085FFFCCFF092C6008091C00029
:107E200085FFFCCFE092C6008091C00085FFFCCFAB
:107E3000D092C6008091C00085FFFCCFC092C600E2
:107E40008091C00085FFFCCFB092C60043CEE09188
:107E50000601F091070194918091C00085FFFCCF4D
:107E60009093C6009CCF80E10E94C73C33CE0E9415
:107E7000763C0E94763C182F0E94763C112309F430
:107E800083C0113009F484C08FE00E94C73C22CE29
:107E900080910C02816080930C02E5CE80910C02EF
:107EA000816080930C0259CF809107018823880F4D
:107EB000880B8A2180930B02809106019091070123
:107EC000880F991F90930701809306018091080203
:107ED00080FF09C080910802909109020196909359
:107EE000090280930802F894F999FECF1127E091D6
:107EF0000601F0910701C8E0D1E08091080290915D
:107F00000902103091F40091570001700130D9F34B
:107F100003E000935700E89500915700017001308D
:107F2000D9F301E100935700E89509901990009169
:107F3000570001700130D9F301E000935700E89534
:107F40001395103498F011270091570001700130FB
:107F5000D9F305E000935700E895009157000170B0
:107F60000130D9F301E100935700E895329602976A
:107F700009F0C7CF103011F00296E5CF112480919F
:107F8000C00085FFB9CEBCCE8EE10E94C73CA2CD19
:0C7F900085E90E94C73C9ECDF894FFCF0D
:027F9C00800063
:040000030000780081
:00000001FF