:100000000C9463000C948B000C948B000C9476067B
:100010000C9476060C9476060C948B000C948B0052
:100020000C948B000C948B000C948B000C948B0024
:100030000C948B000C948B000C948B000C948B0014
:100040000C94E80D0C948B000C9431090C940B0962
:100050000C948B000C948B000C948B000C948B00F4
:100060000C948B000C948B0000000008000201002F
:100070000003040700000000000000000000000072
:10008000240027002A0000000000250028002B0083
:1000900000000000230026002900040404040404D6
:1000A0000404020202020202030303030303010227
:1000B00004081020408001020408102001020408F6
:1000C00010205D174A1311241FBECFEFD8E0DEBF0A
:1000D000CDBF12E0A0E0B1E0EAE6F7E302C0059090
:1000E0000D92AA36B107D9F724E0AAE6B2E001C022
:1000F0001D92A638B207E1F710E0C2E6D0E004C0D6
:100100002197FE010E940119C136D107C9F70E944B
:1001100054130C94A81B0C9400000895CF93DF9304
:100120001F92CDB7DEB76983DC01ED91FC910280AF
:10013000F381E02D41E050E0BE016F5F7F4F0995F4
:100140000F90DF91CF910895DC01ED91FC91048C2B
:10015000F58DE02D099591E089270895862F089562
:1001600081E0862708952091AC023091AD022817D6
:10017000390771F49091AA028091AB02981741F06F
:10018000E091AA02F0E0E659FD4F808190E00895E9
:100190008FEF9FEF089508951F93CF93DF93DC01B6
:1001A0005C962D913C915D972115310539F481E0E4
:1001B00090E013969C938E9312973DC05196ED91CB
:1001C000FC91529750969C915097892F80951FB71C
:1001D0005E964C915E9741FB772770F941FD6095E3
:1001E000F8944081772311F0492B01C048234083C4
:1001F000E9012197F1F748E0508160FF02C0592BD7
:1002000001C058235083E9012197F1F766954150C9
:1002100099F7772321F090818923808303C080811F
:10022000982B90831FBF5C968D919C915D97019751
:10023000F1F721E030E0C901DF91CF911F910895DE
:100240002091AC023091AD022817390771F48091EA
:10025000AB022091AA0290E0805C9F4F821B910923
:1002600060E470E00E94D918089580E090E008955D
:100270002091AC023091AD0228173907B9F4909162
:10028000AA028091AB02981789F0E091AA02F0E0EF
:10029000E659FD4F80812091AA0230E02F5F3F4F49
:1002A0002F7333272093AA0290E008958FEF9FEFDA
:1002B0000895FC018485843011F00C946A0B80E071
:1002C0000895CF93DF93FC0124852430D1F0EC0115
:1002D0000E945901843181F0882371F0883161F0E6
:1002E0008C3161F4E881F9810480F581E02DCE0143
:1002F000099521E0892B19F420E001C021E0822F2B
:1003000001C080E0DF91CF9108950F931F93CF93A9
:10031000DF931F92CDB7DEB78C01DC01ED91FC912C
:100320000480F581E02D0995892B51F0BE016F5FA6
:100330007F4FF80184850E941A0F898190E002C0E6
:100340008FEF9FEF0F90DF91CF911F910F91089545
:10035000FC0184850C945B0FCF93DF931F92CDB784
:10036000DEB741E050E0BE016F5F7F4FFC01848546
:100370000E945B0F181619061CF4898190E002C0D8
:100380008FEF9FEF0F90DF91CF910895FC0184854F
:10039000843011F00C94390F80E090E00895EF92D2
:1003A000FF920F931F93CF93DF93EC017B0161EDDD
:1003B00071E082ED92E00E943A08BE0182ED92E087
:1003C0000E943A0863EE71E082ED92E00E943A08E2
:1003D000E114F104B9F0F70101900020E9F7319739
:1003E0008F010E191F09B8016F5F7F4F80E090E009
:1003F0000E94341AEC01009751F01882B7010E9454
:100400000C1B07C000E010E0C0E0D0E002C000E03C
:1004100010E0A801BE0182ED92E00E94060766EEA0
:1004200071E082ED92E00E943A08209761F0CE01DF
:100430000E94131BAB01BC0177FF08C087E294E068
:100440000E94980808C040E050E0BA012AE087E224
:1004500094E00E944F0866EE71E087E294E00E940B
:100460003A08CE01DF91CF911F910F91FF90EF904D
:100470000C949C1908958CBD9DBD0895CF92DF9278
:10048000EF92FF921F93CF93DF93FC0114851430FA
:1004900099F1EC0180E590E00E943B0268E070E099
:1004A000812F0E943A130E94DC0D6B017C01CE016A
:1004B0000E9459018823B1F061E070E080E090E093
:1004C0000E94A20D0E94DC0DDC01CB018C199D095C
:1004D000AE09BF09883E9340A105B10540F38C8564
:1004E0000E941B0BEC85F0E0EE0FFF1FE255FD4F65
:1004F0001182108284E08C87DF91CF911F91FF9051
:10050000EF90DF90CF9008958F929F92AF92BF921D
:10051000CF92DF92EF92FF920F931F93CF936C01D4
:100520005B017A01FC01C485C43041F481E090E0B4
:10053000F6019383828380E090E04EC08A014130CF
:10054000584010F000E018E080E590E00E943B0287
:100550008C2F0E941E134C0163E070E08C2F0E94D0
:10056000440B873111F08C3121F48016910660F331
:1005700002C000E010E080E590E00E943B0298019C
:10058000A50160E070E08C2F0E94B91260E270E07B
:100590008C2F0E943A1362E070E08C2F0E94440B73
:1005A00084FD10C063E070E08C2F0E94440B811129
:1005B00004C08C2F0E941B0BB9CF80E590E00E94F5
:1005C0003B02E9CF40E162E070E08C2F0E94110B0A
:1005D000012B09F4ABCFC701CF911F910F91FF9071
:1005E000EF90DF90CF90BF90AF909F908F90089545
:1005F000CF92DF92FF920F931F93CF93DF93FC0173
:100600002485243009F077C06A01EB018C01F12CBC
:100610008F2D0E946A0B811103C0F801F48607C078
:100620008B7F8831D1F3F394F4E0FF12F1CFF8011E
:100630008485843009F45FC020910001309101016C
:100640002F5F3F4F11F420E030EC309301012093F5
:100650000001409100015091010120E061E00E9401
:10066000D60EF801F4848A818F3F51F48B818F3F3D
:1006700091F48C818F3F79F48D818F3F61F438C084
:10068000811109C08B81811106C08C81811103C049
:100690008D81882369F1C114D10451F180E590E086
:1006A0000E943B02BE016E5F7F4F8F2D90E0982F1E
:1006B000882744E050E0845F9B4F0E94850EB6017E
:1006C0008F2D0E94E80B64E070E08F2D0E943A139A
:1006D000C8010E945901873189F061E070E080E033
:1006E00090E00E94A20DC8010E9459018111F0CF33
:1006F00084E0F801848780E090E002C081E090E02F
:10070000DF91CF911F910F91FF90DF90CF900895CF
:100710002F923F924F925F926F927F928F929F9211
:10072000AF92BF92CF92DF92EF92FF920F931F93FF
:10073000CF93DF93CDB7DEB765970FB6F894DEBFE2
:100740000FBECDBF7C016B013A01FB0120E080E0D0
:1007500090E06AE03191332309F140ED430F4A30D4
:1007600080F4689FA001699F500D1124CA01C097B1
:10077000830F911D37FD9A958F3F910559F350F3E3
:1007800013C03E3289F4233079F0D301A20FB11D9A
:1007900012968C932F5F80E090E0DCCF233021F421
:1007A000F301858381E021C0F70142815381648197
:1007B00075818091790390917A03A0917B03B09128
:1007C0007C03481759076A077B0709F49EC10E94FA
:1007D000DC0D8701085F1F4F6F7077277C5FC801B2
:1007E0000E94830B813019F080E090E0F3C189EC26
:1007F00091E09A838983F70182819381A481B581F5
:100800008B839C83AD83BE8345E350E0BE016F5F65
:100810007F4FC8010E94700C892B19F4C12CD12C78
:100820006FC10E94DC0DF701778366837627672707
:1008300076277A83698342E050E0BE016F5F7F4F85
:10084000C8010E94660A81E090E09E878D8742E0A1
:1008500050E0BE01635F7F4FC8010E94660A80E0DE
:1008600091E09E878D8742E050E0BE01635F7F4F3D
:10087000C8010E94660A1E861D8642E050E0BE0145
:10088000635F7F4FC8010E94660A42E050E0BE01EC
:10089000635F7F4FC8010E94660A42E050E0BE01DC
:1008A000635F7F4FC8010E94660A5601F50180818F
:1008B000882311F1F6015F018191811115C0450175
:1008C0008C189D081814190494F48F8641E050E0A8
:1008D000BE01615F7F4FC8010E94660AA401B60194
:1008E000C8010E94660A03C08E3229F7E8CF65016D
:1008F000FFEFCF1ADF0ADACF1F8641E050E0BE01DA
:10090000615F7F4FC8010E94660AC12CDD24D39429
:10091000DE86CD8642E050E0BE01635F7F4FC801B6
:100920000E94660ADE86CD8642E050E0BE01635F2B
:100930007F4FC8010E94660AC8010E94B00B892B34
:1009400009F46CCF63E0A62EB12CF2E06F0E711C9F
:100950000E94DC0D1B012C01C8010E940D0A181613
:100960001906A4F00E94DC0DDC01CB018219930969
:10097000A409B50989389341A105B105D0F462E312
:1009800070E080E090E00E94A20DE6CFF701428186
:10099000538164817581808D918DA28DB38D4817AF
:1009A00059076A077B0741F4848D958DC59721F41B
:1009B00006C02FEF3FEF9AC02EEF3FEF97C0F70131
:1009C00081A192A10C970CF4A6C04CE050E0BE01AE
:1009D0006F5F7F4FC8010E94C5098B8190E0982FFF
:1009E00088272C81822B9A8B898B298130E0322FAA
:1009F00022274A81242BF70146815781421753074A
:100A000009F086C097FF84C08F709270892B09F01F
:100A1000DEC0CF80D12CDC2CCC248885C82AC11420
:100A2000D10409F4D1C0812C912C8D8190E0982FB4
:100A300088272E81822B8816990608F46FC0812C96
:100A4000912C41E050E0BE016D5E7F4FC8010E94D5
:100A5000C5098B89982F907C09F093C0811186C0BD
:100A60008B898111EECF42E050E0BE01615F7F4F84
:100A7000C8010E94C50942E050E0BE01635F7F4F9C
:100A8000C8010E94C509C8010E94E409C8010E946A
:100A9000E409C8010E94E409C8010E94E40942E097
:100AA00050E0BE016F5E7F4FC8010E94C5098F856F
:100AB00098898115914009F069C02D853E853227BE
:100AC000232732272130310509F060C089899A89AE
:100AD0008115944009F075C044E050E0B301C801AD
:100AE0002C8B3D8B0E94C5092C893D896901F1E061
:100AF000AF1AB10829F02FEFC216D20609F428CF99
:100B0000C8010E942F0BC60165C08EEF9FEF62C027
:100B10002CEF3FEFEBCF2DEF3FEFE8CF41E050E080
:100B2000BE01635F7F4FC8010E94C5098D85811199
:100B300013C08D858111F2CFC8010E94E409C8015C
:100B40000E94E409C8010E94E409C8010E94E40966
:100B5000FFEF8F1A9F0A69CF8D859FEF980F9D87B2
:100B6000882339F3C8010E94E409F6CF8B899FEFEF
:100B7000980F9B8B882309F473CFC8010E94E40966
:100B8000F5CFC8010E94E4091B8A6ACF412C512C81
:100B900089899A899827892798274816590638F409
:100BA000C8010E94E4098FEF481A580AF1CFEFEF0D
:100BB0008E1A9E0A8C149D0409F043CF26EF3FEF56
:100BC00095CF27EF3FEF92CF2AEF3FEF8FCF2BEF5D
:100BD0003FEF8CCF65960FB6F894DEBF0FBECDBF4A
:100BE000DF91CF911F910F91FF90EF90DF90CF9009
:100BF000BF90AF909F908F907F906F905F904F903D
:100C00003F902F900895CF92DF92EF92FF920F9333
:100C10001F93CF93DF93CDB7DEB7AF970FB6F8949E
:100C2000DEBF0FBECDBF7C016A0109EC11E01A8363
:100C300009831C861B8688EE93E0A0E0B0E08D87D8
:100C40009E87AF87B88B87E491E09A878987188F52
:100C50000F8B198E1A8E1B8E1C8E84E089A31DA308
:100C60000CA31EA21FA218A619A680917103909131
:100C70007203A0917303B09174038CA79DA7AEA7D4
:100C8000BFA78B839C83AD83BE8318861F82AE0172
:100C90004C5D5F4FCE0101960E9488038130910523
:100CA000B1F4D701ED91FC910484F585E02D1BA7EB
:100CB0000AA78EA19FA1A8A5B9A58CA79DA7AEA79D
:100CC000BFA7A601BE01665D7F4FC7010995AF961C
:100CD0000FB6F894DEBF0FBECDBFDF91CF911F914D
:100CE0000F91FF90EF90DF90CF9008951F920F9299
:100CF0000FB60F9211242F933F934F935F936F93EF
:100D00007F938F939F93AF93BF93EF93FF93E09164
:100D1000AC02F091AD02309709F451C0968DA685D2
:100D2000B785858591FF04C09C91892329F447C02C
:100D30009C91892309F043C0A389B4899C9185893A
:100D4000809589238C93868997890197F1F7608D27
:100D5000718DA685B785558538E020E0CB010197D8
:100D6000F1F7822F90E095958795282F4C91452398
:100D700009F02068315091F7868D81FD2095809192
:100D8000AB0290E001968F7399273091AA02381731
:100D900049F0A091AB02B0E0A659BD4F2C938093CF
:100DA000AB0203C0868D8160868F828D938D019703
:100DB000F1F7A389B4899C918589892B8C93FF9144
:100DC000EF91BF91AF919F918F917F916F915F91C3
:100DD0004F913F912F910F900FBE0F901F9018953C
:100DE000E091AC02F091AD02E817F90769F4A3892C
:100DF000B4899C918589809589238C931092AD024A
:100E00001092AC0281E0089580E00895CF92DF92C5
:100E1000EF92FF920F931F93CF93DF936C017A01B0
:100E20008B01C0E0D0E0CE15DF0589F0D8016D91CF
:100E30008D01D601ED91FC910190F081E02DC6016C
:100E40000995892B11F47E0102C02196ECCFC701D0
:100E5000DF91CF911F910F91FF90EF90DF90CF9096
:100E60000895FC01918D828D981761F0828DDF01CC
:100E7000A80FB11D5D968C91928D9F5F9F73928F8D
:100E800090E008958FEF9FEF0895FC01918D828D82
:100E9000981731F0828DE80FF11D858D90E008954F
:100EA0008FEF9FEF0895FC01918D228D892F90E0A7
:100EB000805C9F4F821B91098F739927089582ED63
:100EC00092E00E94530721E0892B09F420E0822F51
:100ED0000895EF92FF920F931F93CF93DF93EC014E
:100EE00081E0888F9B8D8C8D981305C0E889F989E6
:100EF000808185FD24C0F62E0B8D10E00F5F1F4F03
:100F00000F731127E02E8C8DE8120CC00FB607FC72
:100F1000FACFE889F989808185FFF5CFCE010E945B
:100F2000F90CF1CF8B8DFE01E80FF11DE35AFF4F55
:100F3000F0820B8FEA89FB898081806207C0EE898D
:100F4000FF896083E889F98980818064808381E0FA
:100F500090E0DF91CF911F910F91FF90EF90089556
:100F6000CF93DF93EC01888D8823C9F0EA89FB8950
:100F7000808185FD05C0A889B9898C9186FD0FC047
:100F80000FB607FCF5CF808185FFF2CFA889B9891C
:100F90008C9185FFEDCFCE010E94F90CE7CFDF9158
:100FA000CF9108958F929F92AF92BF92CF92DF928E
:100FB000EF92FF920F931F93CF93DF93B82E4B01C5
:100FC0008A01A22E68E270E00E94440BC82FD0E094
:100FD00069E270E08B2D0E94440BDC2FCC27C82BDC
:100FE0009E013770CB2CD12CC601880F991FAC0104
:100FF00047535D4F6A01FA0180819181820F931FEF
:10100000A801420F531F4130584098F060E078E04B
:101010007B01E21AF30AA701B4010E94550EA80150
:101020004E195F09B4016E0D7F1DF601808191811B
:1010300002C0A801B4010E94550EA1100EC0C00F3D
:10104000D11F4D2F68E270E08B2D0E94110B4C2FA9
:1010500069E270E08B2D0E94110BDF91CF911F91FF
:101060000F91FF90EF90DF90CF90BF90AF909F9047
:101070008F9008956115710579F0FB0101900020B2
:10108000E9F73197AF01461B570BDC01ED91FC915D
:101090000280F381E02D099480E090E008954F9262
:1010A0005F926F927F92EF92FF920F931F93CF9375
:1010B000DF93CDB7DEB7A1970FB6F894DEBF0FBEB2
:1010C000CDBF7C01FA01CB0119A2223008F42AE03D
:1010D0008E010F5D1F4F422E512C612C712CBF01D0
:1010E000A30192010E94861BF901CA010150110956
:1010F0006A3014F4605D01C0695CD8016C93232BE5
:10110000242B252B61F7B801C7010E943A08A1964C
:101110000FB6F894DEBF0FBECDBFDF91CF911F9108
:101120000F91FF90EF907F906F905F904F90089598
:10113000CF92DF92EF92FF920F931F93CF93DF93A3
:10114000EC016A017B01E881F9810190F081E02DD9
:101150006DE209958C0144275527BA014C195D09A8
:101160006E097F092AE0CE010E944F08800F911F6F
:10117000DF91CF911F910F91FF90EF90DF90CF9073
:1011800008958F929F92AF92BF92CF92DF92EF928B
:10119000FF920F931F93CF93DF937C01EB016C01C0
:1011A00082E0C80ED11C4701E5E08E0E911C00E0E4
:1011B00010E0F60141916F0150E060E070E02AE03C
:1011C000CE010E944F085C01E881F9810190F08115
:1011D000E02D6EE2CE0109958A0D9B1D080F191FA7
:1011E000C814D90431F7F701458150E060E070E0A0
:1011F0002AE0CE010E944F08800F911FDF91CF910E
:101200001F910F91FF90EF90DF90CF90BF90AF9024
:101210009F908F9008951F920F920FB60F921124F6
:101220002F933F934F935F936F937F938F939F93EE
:10123000AF93BF93EF93FF9382ED92E00E94F90C7E
:10124000FF91EF91BF91AF919F918F917F916F919E
:101250005F914F913F912F910F900FBE0F901F9074
:1012600018951F920F920FB60F9211242F938F9300
:101270009F93EF93FF93E091E202F091E30280816C
:10128000E091E802F091E90282FD12C09081809124
:10129000EB028F5F8F732091EC02821751F0E09187
:1012A000EB02F0E0EE52FD4F958F8093EB0201C010
:1012B0008081FF91EF919F918F912F910F900FBEA1
:1012C0000F901F9018950895CF93DF931F92CDB77D
:1012D000DEB76983DC01ED91FC910280F381E02DA2
:1012E00041E050E0BE016F5F7F4F09950F90DF91A5
:1012F000CF910895FC01818D928D0895FC01848920
:101300009589089529EC31E0FC0131832083FB01AC
:101310004089518962897389FC01428353836483C4
:1013200075830895DC01ED91FC91008CF18DE02D29
:101330000994FC019485FB018485981303C081E026
:10134000943009F480E0089521E0FC018485843024
:1013500009F420E0822F0895CF93DF931F92CDB739
:10136000DEB7FC01218D328D232B49F0BE016F5F6A
:101370007F4F808D0E941A0F898190E002C08FEF0D
:101380009FEF0F90DF91CF910895CF93DF93FC01F2
:10139000218D328D2115310519F48FEF9FEF11C08A
:1013A000EC014217530708F0A901888D0E945B0FDA
:1013B0001816190694F7298D3A8D281B390B3A8F88
:1013C000298FDF91CF9108950F931F93CF93DF93D0
:1013D0001F92CDB7DEB7FC01218D328D232B61F03A
:1013E0008C0141E050E0BE016F5F7F4F808D0E9415
:1013F0005B0F181619061CF08FEF9FEF08C0F8015D
:10140000818D928D0197928F818F898190E00F90CD
:10141000DF91CF911F910F9108950F931F93CF9359
:10142000DF93CDB7DEB728970FB6F894DEBF0FBEB7
:10143000CDBF8C01F801818D928D892B49F0D801A7
:10144000ED91FC910680F781E02DC8010995F2CF5E
:10145000808D0E94390F181619065CF548E050E09F
:10146000BE016F5F7F4FD80158968C910E945B0F31
:101470009C0118161906DCF489819A81AB81BC8124
:10148000F801808B918BA28BB38B8D8190E0982F8C
:1014900088272E81820F911D958B848B2F8130E0C0
:1014A000322F22278885280F311D328F218FC901C5
:1014B00002C080E090E028960FB6F894DEBF0FBE21
:1014C000CDBFDF91CF911F910F910895AF92BF9241
:1014D000CF92DF92FF920F931F93CF93DF938C01F4
:1014E0005B01EA01FC01C688D788F08C80E590E0BA
:1014F0000E943B028F2D0E941E138C179D0720F423
:101500008F2D0E941E13EC019E01A501B6018F2DA7
:101510000E94B9120E943A02F801868997898C0FBD
:101520009D1F978B868BCE01DF91CF911F910F91DD
:10153000FF90DF90CF90BF90AF900895CF92DF9251
:10154000EF92FF920F931F93CF93DF93CDB7DEB748
:10155000AF970FB6F894DEBF0FBECDBF7C016A0116
:1015600009EC11E01A8309831C861B8688EE93E040
:10157000A0E0B0E08D879E87AF87B88B87E491E0CD
:101580009A878987188F0F8B198E1A8E1B8E1C8E47
:1015900084E089A31DA30CA31EA21FA218A619A64E
:1015A0008091710390917203A0917303B0917403C1
:1015B0008CA79DA7AEA7BFA78B839C83AD83BE835B
:1015C00018861F82AE014C5D5F4FCE0101960E94CE
:1015D000880381309105B1F4D701ED91FC91008829
:1015E000F189E02D1BA70AA78EA19FA1A8A5B9A5E7
:1015F0008CA79DA7AEA7BFA7A601BE01665D7F4FC2
:10160000C7010995AF960FB6F894DEBF0FBECDBFE8
:10161000DF91CF911F910F91FF90EF90DF90CF90CE
:1016200008959B0190E00496982F8827642F820FDD
:10163000931F0C94B40ECF93C82F80E590E00E94C6
:101640003B0260E170E08C2F0E943A134FEF62E0A2
:1016500070E08C2F0E94110BCF910C943A02CF9323
:10166000DF93EC01888D843061F00E941B0BE88DC4
:10167000F0E0EE0FFF1FE255FD4F1182108284E073
:10168000888FDF91CF9108950F931F93CF93DF93AE
:101690001F92CDB7DEB790E00496982F88278C0173
:1016A000060F171F0E94340E8FE00E944E0E812FEE
:1016B0000E944E0E802F0E944E0E80E00E944E0E21
:1016C00089830E94320E89810F90DF91CF911F9103
:1016D0000F9108951F93CF93DF931F92CDB7DEB77D
:1016E000182F80E590E00E943B0263E070E0812FBC
:1016F0000E94440B89830E943A0289810F90DF91F6
:10170000CF911F910895EF92FF921F93CF93DF9394
:10171000FC01208D243011F080E01CC07B01EC0125
:1017200010E0812F0E946A0B811102C0188F05C042
:101730008831E1F31F5F1430A1F7888D843061F3A5
:10174000FD86EC861A8E198E20E0A70162E00E94C9
:10175000D60E81E0DF91CF911F91FF90EF90089519
:10176000CF93FC01C08D80E590E00E943B0260E2D7
:1017700070E08C2F0E943A1362E070E08C2F0E9480
:10178000440B84FD19C062E070E08C2F0E94440B72
:1017900083FF0BC048E162E070E08C2F0E94110BC8
:1017A0000E943A0280E090E011C00E943A0280E577
:1017B00090E00E943B02E0CF40E162E070E08C2FBD
:1017C0000E94110B0E943A0281E090E0CF910895AF
:1017D000CF93DF93C82FD62F472F60E170E00E9490
:1017E000110B4D2F61E170E08C2FDF91CF910C94A4
:1017F000110BBF92CF92DF92EF92FF920F931F9344
:10180000CF93DF9300D000D000D0CDB7DEB7FC017E
:10181000208D243009F053C06A017B018C01B12C6A
:1018200063E070E08B2D0E94440B811103C0F8012E
:10183000B08E06C08831D9F3B394F4E0BF12F0CF74
:10184000F801808D8430D9F196E0E9E1F1E0DE0124
:10185000119601900D929A95E1F7F70193819F7788
:101860009C8394819D8395819E83B7016E5F7F4F9A
:1018700090E0982F882744E050E0845F9B4F0E94BF
:10188000850EB601F801808D0E94E80BF801808D6D
:1018900090E0982F882746E050E0BE016F5F7F4FB1
:1018A0008A5F9B4F0E94850EF801128E118E20E8F0
:1018B000A60162E0808D0E94D60E81E001C080E02A
:1018C00026960FB6F894DEBF0FBECDBFDF91CF9145
:1018D0001F910F91FF90EF90DF90CF90BF900895F0
:1018E000FF920F931F93CF93DF93FB01DC01579679
:1018F0001C921E9256975896FC908281811109C0C5
:101900008381811106C08481811103C08581882370
:10191000F9F041155105E1F08A01EF0180E590E011
:101920000E943B02BE016E5F7F4F2F2D30E0922F51
:10193000882744E050E0845F9B4F0E94850EB801E9
:101940008F2D0E94E80B0E943A0281E090E002C0D5
:1019500080E090E0DF91CF911F910F91FF9008956B
:1019600080E090E0892B29F00E945F0781110C94A0
:10197000000008953FB7F8948091BD029091BE0297
:10198000A091BF02B091C00226B5A89B05C02F3F11
:1019900019F00196A11DB11D3FBFBA2FA92F982F95
:1019A0008827820F911DA11DB11DBC01CD0142E010
:1019B000660F771F881F991F4A95D1F708950E94D7
:1019C000FE1A1F93CF93DF93182F66E270E00E94F8
:1019D000440BC82FD0E067E270E0812F0E94440BD7
:1019E000DC2FCC279E01282BC901DF91CF911F91BD
:1019F0000895FC01848DDF01A80FB11DA35ABF4FCC
:101A00002C91848D90E001968F739927848FA689FD
:101A1000B7892C93A089B1898C9180648C93938D24
:101A2000848D981306C00288F389E02D80818F7D14
:101A30008083089590E0FC01E859FF4F3491FC0148
:101A4000E255FF4F2491FC01E656FF4FE491EE234F
:101A500009F43BC0332339F1333091F038F431309D
:101A6000A9F0323001F584B58F7D12C0373091F086
:101A70003830A1F03430B9F4809180008F7D03C0FC
:101A8000809180008F77809380000DC084B58F7720
:101A900084BD09C08091B0008F7703C08091B000F1
:101AA0008F7D8093B000F0E0EE0FFF1FEA57FF4FED
:101AB000A591B4918FB7F894EC91611103C0209572
:101AC0002E2301C02E2B2C938FBF0895CF93DF932D
:101AD00090E0FC01E255FF4F2491FC01E656FF4FD8
:101AE0008491882361F190E0880F991FFC01E458EC
:101AF000FF4FC591D491FC01EA57FF4FA591B491D6
:101B0000611109C09FB7F89488812095822388834A
:101B1000EC912E230BC0623061F49FB7F8943881AA
:101B2000822F809583238883EC912E2B2C939FBF4B
:101B300006C08FB7F894E8812E2B28838FBFDF91E2
:101B4000CF9108958F929F92AF92BF92CF92DF92E2
:101B5000EF92FF926B017C010E94BA0C4B015C0179
:101B6000C114D104E104F104F1F00E94BA0CDC01CB
:101B7000CB0188199909AA09BB09883E9340A105A0
:101B8000B10570F321E0C21AD108E108F10888EE2E
:101B9000880E83E0981EA11CB11CC114D104E1047D
:101BA000F10419F7DDCFFF90EF90DF90CF90BF9059
:101BB000AF909F908F9008952FB7F8946091B902DD
:101BC0007091BA028091BB029091BC022FBF089520
:101BD0001F920F920FB60F9211242F933F938F9362
:101BE0009F93AF93BF938091B9029091BA02A09155
:101BF000BB02B091BC023091B80223E0230F2D3715
:101C000020F40196A11DB11D05C026E8230F029600
:101C1000A11DB11D2093B8028093B9029093BA021E
:101C2000A093BB02B093BC028091BD029091BE0212
:101C3000A091BF02B091C0020196A11DB11D809379
:101C4000BD029093BE02A093BF02B093C002BF91A9
:101C5000AF919F918F913F912F910F900FBE0F9059
:101C60001F9018952A9A08952A9808951F93CF9344
:101C7000DF93182F60E270E00E94440BC82FD0E081
:101C800061E270E0812F0E94440BDC2FCC279E0183
:101C9000282BC901DF91CF911F9108958EBD0000BF
:101CA0000DB407FEFDCF8EB50895CF92DF92EF926F
:101CB000FF920F931F93CF93DF93EC017A018B0177
:101CC0006C01C40ED51ECC15DD05A9F00E94340EA2
:101CD0008FE00E944E0E8D2F0E944E0E8C2F0E9480
:101CE0004E0E219680E00E944E0EF80181938F01E6
:101CF0000E94320EE8CFC701DF91CF911F910F9163
:101D0000FF90EF90DF90CF900895CF92DF92EF9207
:101D1000FF920F931F93CF93DF93EC017A018B0116
:101D20006C01C40ED51ECC15DD05A1F00E94340E49
:101D300080EF0E944E0E8D2F0E944E0E8C2F0E941F
:101D40004E0E2196F80181918F010E944E0E0E9445
:101D5000320EE9CFC701DF91CF911F910F91FF9014
:101D6000EF90DF90CF9008951F93CF93DF9300D033
:101D7000CDB7DEB7182F6A8399830E94340E80EFA7
:101D80000E944E0E9981892F0E944E0E812F0E9433
:101D90004E0E6A81862F0E944E0E0E94320E81E006
:101DA0000F900F90DF91CF911F910895FF920F93A5
:101DB0001F93CF93DF9300D0CDB7DEB7F82E8A0103
:101DC0002A8369830E941B0B80E590E00E943B02FE
:101DD0002A816981462F422B60E070E08F2D0E949E
:101DE000110B0115110551F40091B6021091B702C3
:101DF0000F5F1F4F1093B7020093B602412F64E0AC
:101E000070E08F2D0E94110B402F65E070E08F2D48
:101E10000E94110B61E070E08F2D0E943A130E9426
:101E20003A0281E00F900F90DF91CF911F910F91B7
:101E3000FF9008951F93CF93DF9300D0CDB7DEB707
:101E4000182F80E590E069837A830E943B0221E0AD
:101E500041E050E069817A81812F0E94D2070E947F
:101E60003A0281E090E00F900F90DF91CF911F91A7
:101E70000895FF920F931F93CF93DF93F82E80E581
:101E800090E00E943B02C0E0D0E08F2D0E94E10C68
:101E90008C01892B21F08F2D0E94E10CEC01C017E1
:101EA000D10799F70E943A02CE01DF91CF911F919D
:101EB0000F91FF900895AF92BF92CF92DF92EF9271
:101EC000FF921F93CF93DF93182F5B017A0180E578
:101ED00090E00E943B02C0E0D0E0812F0E94E10C24
:101EE0006C01892B21F0812F0E94E10CEC01CC15B3
:101EF000DD0599F7209799F463E070E0812F0E9447
:101F0000440B8431F1F08823E1F0C1E0D0E08C3162
:101F100011F4C0E0D0E0D195C195D10912C0EC1602
:101F2000FD060CF4E7011C161D065CF420E0AE0172
:101F3000B501812F0E94D20760E470E0812F0E94DA
:101F40003A130E943A02CE01DF91CF911F91FF9088
:101F5000EF90DF90CF90BF90AF900895CF92DF9237
:101F6000EF92FF92CF93DF93EC010E94DC0D6B01A7
:101F70007C0180917D0390917E03DC01ED91FC91C9
:101F80000480F581E02D0995892B79F40E94DC0D00
:101F9000AB01BC014C195D096E097F0948395A43F0
:101FA0006105710530F380E00DC080917D03909153
:101FB0007E03DC01ED91FC910680F781E02D09950F
:101FC000888381E0DF91CF91FF90EF90DF90CF90F9
:101FD0000895CF92DF92EF92FF920F931F93CF93CA
:101FE000DF93CDB7DEB7C254D1090FB6F894DEBF88
:101FF0000FBECDBFFC0182819381A481B581239660
:102000008CAF9DAFAEAFBFAF239721E023962FAF2C
:10201000239723964CAD5DAD6EAD7FAD23974BAB53
:102020005CAB6DAB7EAB89AF9AAFABAFBCAF8DA7EE
:102030009EA7AFA7B8AB28AB4DA55EA56FA578A9A5
:102040004FA358A769A77AA72EAB4BA95CA96DA986
:102050007EA949A35AA36BA37CA38B8F9C8FAD8FC2
:10206000BE8F49EC51E05C8B4B8B3FEF3D8B3E8B41
:102070003F8B188E5E874D872AA7CFA0D8A4E9A4EE
:10208000FAA4CF86D88AE98AFA8A2CA309A11AA1D0
:102090002BA13CA109871A872B873C875A83498348
:1020A0008B839C83AD83BE836CE271E080E090E023
:1020B0000E94A20D1FB7F8948091D102811127C010
:1020C000E4EAF0E08491E8EBF0E09491E82FF0E0AE
:1020D000EE0FFF1FE458FF4FA591B491EC91E92357
:1020E00021F461E08AE00E941A0D61E08AE00E941A
:1020F000660D8CB580618CBD8CB580648CBD61E053
:102100008DE00E94660D61E08BE00E94660D80917B
:10211000D1028F5F8093D1021FBF229A80E590E0A9
:102120000E943B0260E880E090E00E94B40E65E50A
:102130008BE190E00E94B40E65E58AE190E00E9498
:10214000B40E0E943A0280E090E49093C202809321
:10215000C10280E090E69093CA028093C90280E0B9
:1021600098E49093C4028093C30280E098E6909331
:10217000CC028093CB0280E090E59093C6028093DE
:10218000C50280E090E79093CE028093CD0280E07C
:1021900098E59093C8028093C70280E098E79093F7
:1021A000D0028093CF0280E590E00E943B0246E09F
:1021B00050E062E071E089E090E00E94850E44E02A
:1021C00050E0BE016D5F7F4F8FE090E00E94850E72
:1021D00044E050E0BE01615F7F4F81E090E00E94EB
:1021E000850E44E050E0BE016B5E7F4F85E090E0DD
:1021F0000E94850E0E943A0281E08C8789859A852B
:10220000AB85BC858093710390937203A093730395
:10221000B0937403CE5BDF4F0FB6F894DEBF0FBEF2
:10222000CDBFDF91CF911F910F91FF90EF90DF9085
:10223000CF90089580917D0390917E03009759F18E
:10224000DC01ED91FC910488F589E02D099581115F
:1022500024C08091180490911904892BE1F48DEF2A
:102260009FEF909319048093180480917D039091BF
:102270007E03DC01ED91FC910284F385E02D09954C
:1022800080917D0390917E03DC01ED91FC910288A9
:10229000F389E02D099580E0089581E00895CF93BA
:1022A000DF93DC014E5F5F4FFC019F012A1B3B0B5C
:1022B0009191992339F0EB01C40FD51F98834F5F9B
:1022C0005F4FF3CFCA01821B930B680F791FFB018D
:1022D0003297308331962083CA01DF91CF910895E0
:1022E000CF92DF92EF92FF920F931F93CF93DF93E2
:1022F00000D000D0CDB7DEB79A01E0E0922F9F77F3
:10230000220F232F221F330B31952115310509F0A0
:10231000906801E00E0FA1E0B0E0AC0FBD1FAE0F62
:10232000B11DFD0190832115310511F0E02FE6CF9D
:1023300010E0DB01A01BB10B14968C93FE013196CB
:102340006F0180E090E08017910764F4F601F1904E
:102350006F019C01201B310B260F371FF901F582FD
:102360000196F1CF80917D0390917E034F5F5F4F87
:10237000040F151FFC0120813181F9012281338175
:10238000A801BD01F90109957C010E94DC0D609353
:10239000010470930204809303049093040481E089
:1023A000E016F10609F080E00F900F900F900F906B
:1023B000DF91CF911F910F91FF90EF90DF90CF9021
:1023C00008955F926F927F928F929F92AF92BF9289
:1023D000CF92DF92EF92FF920F931F93CF93DF93F1
:1023E0001F92CDB7DEB74C018FE793E00E94AE0F8E
:1023F000811126C022C00F5F1F4F8981F801E35869
:10240000FC4F8183282F2F7730E02C9DA0012D9D3C
:10241000500D3C9D500D1124A40EB51E37E0CC0C80
:10242000DD1CEE1CFF1C3A95D1F787FF15C0CE01CD
:1024300001960E94AE0F8111DECF80E090E088C04F
:1024400070907F03198201E010E0A12CB12CC12C07
:10245000D12C7601C394EBCF872D807F55245394E4
:10246000803309F0512C8FEF800FD4018C935520CD
:1024700021F1C80181589C4F0E94AE0F8823E9F2D8
:10248000C80180589C4F0E94AE0F8823B1F20E5FA6
:102490001F4FD401EC91F0E0E358FC4FE380F12CA6
:1024A000FE2CEE248481E80EF11C80917F0381FFD5
:1024B00008C0B2E0EB0EF11C04C080E0E12CF12C6E
:1024C00001C082E0C82ED12CC01AD10A9EEF692E1D
:1024D00077247A94C601800F911F8A159B0568F5B1
:1024E000CE0101960E94AE0F882309F4A6CF8091F9
:1024F0001604909117040097A9F0552099F0F40163
:102500002081A301421B51099A01200F311FE216BD
:10251000F30640F4DC01ED91FC910190F081E02D97
:10252000698109950038110528F48981F801E3587B
:10253000FC4F82830F5F1F4FCDCF80911604909187
:102540001704892B21F40138110508F076CFC80152
:102550000F90DF91CF911F910F91FF90EF90DF903F
:10256000CF90BF90AF909F908F907F906F905F9033
:1025700008959F92AF92BF92CF92DF92EF92FF9217
:102580000F931F93CF93DF93982E8B015A0169010C
:1025900064E270E00E94440BE82EF12C65E270E0EA
:1025A000892D0E94440BFE2CEE24E82AE701C00F7F
:1025B000D11F9E013770E92CF12CC701880F991F9C
:1025C000AC014F535D4F7A01FA0180819181820FF6
:1025D000931FA9014C0D5D1D4130584090F000E063
:1025E00018E0021B130BA801B5010E94850EA6017D
:1025F000401B510BB501600F711FF7018081918164
:1026000002C0A601B5010E94850ECC0DDD1D4D2F27
:1026100064E270E0892D0E94110B4C2F65E270E09E
:10262000892DDF91CF911F910F91FF90EF90DF9057
:10263000CF90BF90AF909F900C94110BFF920F938F
:102640001F93CF93DF93F82EC0E0D0E08F2D0E9430
:10265000360E8C01892B21F08F2D0E94360EEC0155
:10266000C017D10799F7CE01DF91CF911F910F913C
:10267000FF900895CF93C82F462F61E070E00E942D
:10268000110B61E070E08C2F0E94440B8111F9CF97
:10269000CF91089581EA91E09093280480932704D4
:1026A00087E294E00C94F006CF93DF93CDB7DEB7CA
:1026B0002B970FB6F894DEBF0FBECDBF789484B5CC
:1026C000826084BD84B5816084BD85B5826085BD2E
:1026D00085B5816085BD80916E00816080936E00BC
:1026E00010928100809181008260809381008091AE
:1026F000810081608093810080918000816080935F
:1027000080008091B10084608093B1008091B0001E
:1027100081608093B00080917A00846080937A0019
:1027200080917A00826080937A0080917A00816043
:1027300080937A0080917A00806880937A0010926A
:10274000C100109242041092410410924004109271
:102750003F0410923E0410923D048DE991E0909365
:1027600044048093430490913304963108F057C099
:102770002DEB30E030933E0420933D042BE931E013
:102780003093400420933F042CE231E03093420424
:102790002093410420916800983050F031E09E3041
:1027A00008F430E081E001C0880F3A95EAF701C0F3
:1027B00084E0822B80936800983038F09E3040F09F
:1027C000963148F020E030E008C02DE630E005C04A
:1027D0002BE630E002C02CE630E030933B0420933F
:1027E0003A04983030F481E001C0880F9A95EAF7F6
:1027F0000EC0292F30E09E3018F42850310902C055
:102800002E50310981E001C0880F2A95EAF78093A4
:102810003C0480914304909144040197F1F7809126
:10282000410490914204892B21F18091AC02909156
:10283000AD0224E087329207E1F0009711F00E9488
:10284000F006809145048E7F809345041092AB0280
:102850001092AA0287E294E09093AD028093AC02BA
:10286000E0913A04F0913B04908180913C04892BE3
:102870008083E091E202F091E30282E08083E091C4
:10288000DE02F091DF021082E091E002F091E102BD
:102890008FEC80831092EA02E091E602F091E70269
:1028A00086E08083E091E402F091E502808180611E
:1028B0008083E091E402F091E5028081886080836A
:1028C000E091E402F091E502808180688083E091EC
:1028D000E402F091E50280818F7D808389EE91E0B2
:1028E00090931304809312048BE597E09093150462
:1028F000809314048FEC91E090930B0480930A046E
:1029000089EC91E09A83898380914E0490914F04E1
:10291000A0915004B09151048B839C83AD83BE83FE
:10292000CE0101960E94E90F6CED75E080E090E029
:102930000E94A20D4E0138E0830E911C1EEF212E45
:1029400033243A940E941A11882331F00E941A11FC
:10295000882309F4AFC26EC1E7E0BE2EF2E0CF2EAD
:10296000AFE0DA2E0CEF1FEFB9ECEB2EB1E0FB2E4F
:102970000E941A118111EACF6BEF71E082ED92E0B3
:102980000E943A080E941A118111C4C06091120479
:102990007091130480917D0390917E034091140403
:1029A00050911504DC01ED91FC916115710521F048
:1029B0000684F785E02D14C00484F585E02DFA82A5
:1029C000E98240900E0450900F04609010047090C3
:1029D00011044B825C826D827E82BE016F5F7F4FED
:1029E00009958130910509F090C09093000480937F
:1029F000FF03E2E1F1E0DE0111968B2D01900D92D3
:102A00008A95E1F7FE013196A4E8B3E081918D93B8
:102A1000E815F905D9F7C0928B0310928C03D09278
:102A20008D034FE050E06FE773E089E192E00E9490
:102A30004F11AC01455051096FE773E080E10E94EE
:102A400070110E94DC0D6093010470930204809366
:102A50000304909304046093050470930604809328
:102A600007049093080480917D0390917E03DC011C
:102A7000ED91FC910480F581E02D0995892BD1F42D
:102A80000E94DC0D409005045090060460900704FD
:102A900070900804DC01CB0184199509A609B709D7
:102AA00088399A43A105B105F0F2109319040093F7
:102AB00018041FC0C4010E94E1110497D1F4809151
:102AC0008203811111C00E94DC0D60930504709394
:102AD000060480930704909308041092090410924E
:102AE00019041092180416C090E090931904809372
:102AF000180480917D0390917E03DC01ED91FC919F
:102B00000288F389E02D099568C03092190420925B
:102B1000180463C067E272E082ED92E00E943A0816
:102B200066EE71E082ED92E00E943A080E941A116E
:102B3000882301F145E050E06FE773E081E392E024
:102B40000E944F11A5E3B2E020E030E04D91F90181
:102B5000E80FF91FE358FC4F42832F5F3F4F2C30A3
:102B60003105A1F7AC01495F5F4F6FE773E080E388
:102B70000E9470110E941A11882309F4F9CE8091E5
:102B8000FF0390910004019629F090930004809334
:102B9000FF0306C0E1E0F0E0F0930004E093FF03E0
:102BA0008091FF03909100049093840380938503A8
:102BB00047E050E06FE773E082E492E00E944F113B
:102BC000FC01E358FC4F1282AC01445051096FE7FD
:102BD00073E082E80E947011CBCE66E472E082ED71
:102BE00092E00E943A084091180450911904052E71
:102BF000000C660B770B77FF05C082ED92E00E9418
:102C0000980805C02AE082ED92E00E944F0862E534
:102C100072E082ED92E00E943A0866EE71E082ED89
:102C200092E00E943A0868E873E180E090E00E9438
:102C3000A20D9ECE0E94DC0D6B017C0180910504EB
:102C400090910604A0910704B0910804A701960191
:102C5000281B390B4A0B5B0BDA01C90189399A43EE
:102C6000A105B105A8F48091010490910204A091FE
:102C70000304B0910404A7019601281B390B4A0BE9
:102C80005B0BDA01C90189399A43A105B105C8F185
:102C90002091090480917D0390917E03222371F09D
:102CA0002CEF3FEF3093190420931804DC01ED91D1
:102CB000FC910288F389E02D0995FCC020EC20935B
:102CC0007F0310928003DC01ED91FC910280F3817F
:102CD000E02D42E050E06FE773E00995C0920104F7
:102CE000D0920204E0920304F0920404C09205041E
:102CF000D0920604E0920704F092080481E08093E9
:102D0000090480917D0390917E03DC01ED91FC919B
:102D10000480F581E02D0995892B09F4CBC0CE0103
:102D200001960E94E1118C01892B09F4C3C0C09265
:102D30000504D0920604E0920704F0920804709013
:102D40007F03872D807F803309F099C0E0910A04CA
:102D5000F0910B04FB87EA87EF2B09F4ABC04DB66B
:102D60005EB6A981B0E0CD0183589C4FFC01A380E1
:102D7000B12CBA2CAA248481A80EB11CC5010196DD
:102D80002DB73EB7281B390B0FB6F8943EBF0FBEC8
:102D90002DBF8DB79EB70196BC0120E030E02A150B
:102DA0003B0569F0A9014A0F5B1F43585C4FFA01CC
:102DB0004581FB014193BF012F5F3F4FF0CFAC0135
:102DC000420F531FFA011082F72DF670F987F23087
:102DD00009F03FC05901AA0EBB1EB50163587C4FD4
:102DE000FB01458150E0542F442766813A01660E6D
:102DF000711C4BEF5FEF4A1B5B0B421B530B400FE9
:102E0000511FB5016C577C4FEA85FB85099580E41D
:102E100080937F03298520938003709281036092C1
:102E2000820380917D0390917E03DC01ED91FC9102
:102E30000280F381E02D44E050E06FE773E00995F4
:102E4000C0920104D0920204E0920304F0920404C0
:102E500010C04DEF5FEF4A1B5B0B421B530B400F43
:102E6000511F2A0F3B1FB9016E577C4FEA85FB8526
:102E700009950FB6F8945EBE0FBE4DBE1BC0803CD8
:102E8000A9F480ED80937F031092800380917D03ED
:102E900090917E03DC01ED91FC910280F381E02DA5
:102EA00042E050E06FE773E0099504C0803D11F403
:102EB000109209040E94B00C45CD89EC91E09093EA
:102EC00059048093580410925A0410925B04109293
:102ED0005C0410925D041092D5021092D40248EE68
:102EE00053E060E070E04093D6025093D7026093C5
:102EF000D8027093D9022DE631E03093D3022093AB
:102F0000D20225EC30E03093DF022093DE0224EC85
:102F100030E03093E1022093E00220EC30E0309387
:102F2000E3022093E20221EC30E03093E5022093AB
:102F3000E40222EC30E03093E7022093E60226EC34
:102F400030E03093E9022093E8021092EB021092F5
:102F5000EC021092ED021092EE0290935F048093C7
:102F60005E04109260041092610410926204109248
:102F70006304909365048093640410926604109235
:102F80006704109268041092690490936B04809314
:102F90006A0410926C0410926D0410926E041092E8
:102FA0006F049093710480937004109272041092D5
:102FB00073041092740410927504909370038093BC
:102FC0006F031092710310927203109273031092A8
:102FD000740390937803809377031092790310928F
:102FE0007A0310927B0310927C0390937704809372
:102FF0007604109278041092790410927A04109258
:103000007B0490937D0480937C0410927E04109244
:103010007F04109280041092810490935304809353
:1030200052041092540410925504109256041092B7
:10303000570490934D0480934C0420EC20934E044D
:1030400028EA20934F0429E82093500421EB209391
:10305000510490934704809346048AE08093480487
:1030600083E28093490489E380934A0480ED80934E
:103070004B0410922A041092290440932B0450937D
:103080002C0460932D0470932E0481EA91E09093B8
:1030900028048093270410923E0410923D0410925D
:1030A000400410923F041092420410924104109286
:1030B000440410924304609145046E7F6D7F6093D9
:1030C00045046695617081E0682789E00E941A0DC9
:1030D00061E089E00E94660DE7EBF0E0E491E093A7
:1030E0003704E3EAF0E0E491F0E0EE0FFF1FEA5767
:1030F000FF4F85919491909339048093380460E058
:1031000088E00E94660D8091450481FD04C061E065
:1031100088E00E941A0D88E080933304E6EBF0E02B
:10312000E491E0933404E2EAF0E0E491F0E0EE0FA1
:10313000FF1FE057FF4F8591949190933604809341
:10314000350410921D0410921C0488EE93E0A0E058
:10315000B0E080931E0490931F04A0932004B093CA
:1031600021048DE791E090931B0480931A0484E07E
:103170008093260489EC91E090930D0480930C04D5
:1031800010920E0410920F04109210041092110469
:103190008FEF9FEF90931904809318048AE194E0D5
:1031A00090937E0380937D0310921704109216046F
:1031B000089597FB072E16F4009407D077FD09D0E9
:1031C0000E94ED1807FC05D03EF4909581959F4F25
:1031D0000895709561957F4F0895AA1BBB1B51E11F
:1031E00007C0AA1FBB1FA617B70710F0A61BB70B77
:1031F000881F991F5A95A9F780959095BC01CD011C
:103200000895EE0FFF1F0590F491E02D0994CF93E0
:10321000DF938230910510F482E090E0E091840425
:10322000F091850420E030E0C0E0D0E0309711F16B
:103230004081518148175907C0F04817590761F478
:1032400082819381209719F09B838A832BC090936E
:1032500085048093840426C02115310519F0421796
:10326000530718F49A01BE01DF01EF010280F381D8
:10327000E02DDCCF2115310509F1281B390B243055
:10328000310590F412968D919C91139761157105FB
:1032900021F0FB019383828304C090938504809383
:1032A0008404FD01329644C0FD01E20FF31F8193B7
:1032B0009193225031092D933C933AC0209182047E
:1032C00030918304232B41F420910A0130910B01AA
:1032D00030938304209382042091080130910901E6
:1032E0002115310541F42DB73EB740910C015091A5
:1032F0000D01241B350BE0918204F0918304E21749
:10330000F307A0F42E1B3F0B2817390778F0AC0108
:103310004E5F5F4F2417350748F04E0F5F1F5093E5
:103320008304409382048193919302C0E0E0F0E033
:10333000CF01DF91CF9108950F931F93CF93DF9328
:10334000009709F48CC0FC0132971382128200911D
:103350008404109185040115110581F420813181C7
:10336000820F931F2091820430918304281739071C
:1033700079F5F0938304E093820471C0D80140E0B2
:1033800050E0AE17BF0750F412962D913C91139761
:10339000AD012115310509F1D901F3CF9D01DA0104
:1033A0003383228360817181860F971F8217930771
:1033B00069F4EC0128813981260F371F2E5F3F4FBA
:1033C000318320838A819B8193838283452B29F4D7
:1033D000F0938504E093840442C01396FC93EE932B
:1033E0001297ED01499159919E01240F351FE21763
:1033F000F30771F480819181840F951F02961196D5
:103400009C938E938281938113969C938E931297B3
:10341000E0E0F0E0D80112968D919C91139700970F
:1034200019F0F8018C01F6CF8D919C9198012E5FD7
:103430003F4F820F931F20918204309183042817FD
:10344000390769F4309729F41092850410928404A6
:1034500002C0138212821093830400938204DF91CE
:10346000CF911F910F910895A0E0B0E0EAE3FAE157
:103470000C94531BEC01009721F4CB010E94071917
:10348000B8C0FC01E60FF71F9C0122503109E2177A
:10349000F30708F4ACC0D9010D911C9111970617E0
:1034A0001707B0F00530110508F49FC0C801049754
:1034B0008617970708F499C002501109061B170BCD
:1034C000019311936D937C93CF010E949C198DC041
:1034D0005B01A01AB10A4C01800E911EA0918404D8
:1034E000B091850440E050E0E12CF12C109709F4F4
:1034F0004AC0A815B905D1F56D907C90119763016C
:1035000082E0C80ED11CCA14DB0480F1A3014A1961
:103510005B096A0182E0C80ED11C1296BC9012971A
:103520001396AC91B5E0CB16D10440F0B282A383E0
:1035300051834083D9016D937C930AC00E5F1F4F66
:10354000C301800F911FF90191838083EB2DFA2F26
:10355000E114F10431F0D7011396FC93EE93129726
:1035600044C0F0938504E09384043FC08D919C9106
:1035700011974817590708F4AC017D0112960D9078
:10358000BC91A02DB3CF80918204909183048815C3
:103590009905E1F446175707C8F480910801909106
:1035A0000901009741F48DB79EB740910C015091ED
:1035B0000D01841B950BE817F907C8F4F0938304F9
:1035C000E0938204F901718360830FC0CB010E94F4
:1035D00007197C01009759F0A801BE010E94031B46
:1035E000CE010E949C19C70104C0CE0102C080E038
:1035F00090E0CDB7DEB7EEE00C946F1B81E090E079
:10360000F8940C94A81BFB01DC0102C001900D9200
:1036100041505040D8F70895FB01DC0101900D9214
:103620000020E1F708951F93FC0199278827BC012A
:10363000E89411911032E9F3193010F01E30C8F3FC
:103640001B3251F01D3249F4689406C00E943A1BA7
:10365000610F711D811D911D119110531A30B0F32E
:103660003EF490958095709561957F4F8F4F9F4F59
:103670001F910895592F482F372F262F660F771F38
:10368000881F991F660F771F881F991F620F731F6E
:10369000841F951F660F771F881F991F08952F920B
:1036A0003F924F925F926F927F928F929F92AF92D2
:1036B000BF92CF92DF92EF92FF920F931F93CF931F
:1036C000DF93CDB7DEB7CA1BDB0B0FB6F894DEBFB6
:1036D0000FBECDBF09942A88398848885F846E84DC
:1036E0007D848C849B84AA84B984C884DF80EE8026
:1036F000FD800C811B81AA81B981CE0FD11D0FB62F
:10370000F894DEBF0FBECDBFED010895A1E21A2EE1
:10371000AA1BBB1BFD010DC0AA1FBB1FEE1FFF1F75
:10372000A217B307E407F50720F0A21BB30BE40BC5
:10373000F50B661F771F881F991F1A9469F760950C
:103740007095809590959B01AC01BD01CF010895C6
:1037500010E0C2E6D0E004C0FE010E9401192196EB
:0A376000C336D107C9F7F894FFCF74
:10376A0000C0DEEDBAFEFEED000086048000010016
:10377A00000000044D5154540401005E0000000092
:10378A00000000DF0CDF0CDF0CDF0CDF0CDF0CDFCE
:10379A000CDF0CDF0CDF0CDF0CDF0CDF0CDF0CDFC7
:1037AA000CDF0C000000006409660A7A09E409AC1F
:1037BA00096309830B2F0B700C9E0AB00B0D0AC507
:1037CA0009920982097E09F90B00000000690706BF
:1037DA0007530731074507B007000000008E008431
:1037EA0002C601AC0185018D00F8020306A8013E5C
:1037FA00026101A409B000AE009909A4000000000A
:10380A0000CC00060720013801B300CB00000000FD
:10381A0000DF0C0607DF0CDF0CDF0CDF0C000000FA
:10382A0000DF0C060700000000C10800000000DFEE
:10383A000C4D6573736167652061727269766564A0
:10384A00205B005D20000D0A0062726F6B65722EAC
:10385A00686976656D712E636F6D00417474656D6C
:10386A007074696E67204D51545420636F6E6E6593
:10387A006374696F6E2E2E2E0061726475696E6FA5
:10388A00436C69656E7400636F6E6E65637465641C
:10389A00006132730068656C6C6F207365727665BF
:1038AA007200733261006661696C65642C20726310
:1038BA003D002074727920616761696E20696E200B
:0A38CA0035207365636F6E647300B0
:00000001FF
