:100000000C9463000C948B000C948B000C9497144C
:100010000C9497140C9497140C948B000C948B00F4
:100020000C948B000C948B000C948B000C948B0024
:100030000C948B000C948B000C948B000C948B0014
:100040000C94ED060C948B000C94ED050C94C705F4
:100050000C948B000C948B000C948B000C948B00F4
:100060000C948B000C948B000000000024002700EF
:100070002A0000000008000201000003040700003D
:1000800000000000000000000000250028002B00F8
:1000900000000000230026002900040404040404D6
:1000A0000404020202020202030303030303010227
:1000B00004081020408001020408102001020408F6
:1000C0001020FF1B6B1D11241FBECFEFD8E0DEBF39
:1000D000CDBF12E0A0E0B1E0E4E0F2E402C00590A0
:1000E0000D92A43BB107D9F725E0A4EBB2E001C023
:1000F0001D92A033B207E1F710E0C2E6D0E004C0E1
:100100002197FE010E94A41DC136D107C9F70E94A4
:1001100027150C94F5200C9400000895CF93DF93DD
:100120001F92CDB7DEB76983DC01ED91FC910280AF
:10013000F381E02D41E050E0BE016F5F7F4F0995F4
:100140000F90DF91CF910895FC01818D928D0895DC
:10015000FC0184899589089529EC31E0FC01318303
:100160002083FB014089518962897389FC014283A4
:100170005383648375830895DC01ED91FC91008CB9
:10018000F18DE02D0994FC019485FB018485981381
:1001900003C081E0943009F480E0089521E0FC017F
:1001A0008485843009F420E0822F08950895CF9348
:1001B000DF931F92CDB7DEB7FC01218D328D232B4B
:1001C00049F0BE016F5F7F4F808D0E94DB07898100
:1001D00090E002C08FEF9FEF0F90DF91CF910895D5
:1001E0000F931F93CF93DF931F92CDB7DEB78C0190
:1001F000DC01ED91FC910480F581E02D0995892BBE
:1002000051F0BE016F5F7F4FF80184850E94DB07CC
:10021000898190E002C08FEF9FEF0F90DF91CF9127
:100220001F910F910895CF93DF93FC01218D328DA3
:100230002115310519F48FEF9FEF11C0EC01421722
:10024000530708F0A901888D0E941C08181619068A
:1002500094F7298D3A8D281B390B3A8F298FDF911E
:10026000CF9108950F931F93CF93DF931F92CDB734
:10027000DEB7FC01218D328D232B61F08C0141E032
:1002800050E0BE016F5F7F4F808D0E941C081816E2
:1002900019061CF08FEF9FEF08C0F801818D928D39
:1002A0000197928F818F898190E00F90DF91CF919C
:1002B0001F910F910895FC0184850C941C080F93E5
:1002C0001F93CF93DF93CDB7DEB728970FB6F8947F
:1002D000DEBF0FBECDBF8C01F801818D928D892BC1
:1002E00049F0D801ED91FC910680F781E02DC8011D
:1002F0000995F2CF808D0E94FA07181619065CF551
:1003000048E050E0BE016F5F7F4FD80158968C9156
:100310000E941C089C0118161906DCF489819A8138
:10032000AB81BC81F801808B918BA28BB38B8D81CB
:1003300090E0982F88272E81820F911D958B848BBA
:100340002F8130E0322F22278885280F311D328FF0
:10035000218FC90102C080E090E028960FB6F89482
:10036000DEBF0FBECDBFDF91CF911F910F910895DA
:10037000AF92BF92CF92DF92FF920F931F93CF93D2
:10038000DF938C015B01EA01FC01C688D788F08C01
:1003900080E590E00E9410098F2D0E94E70F8C17D6
:1003A0009D0720F48F2D0E94E70FEC019E01A5010F
:1003B000B6018F2D0E94820F0E940F09F8018689D5
:1003C00097898C0F9D1F978B868BCE01DF91CF91E4
:1003D0001F910F91FF90DF90CF90BF90AF90089545
:1003E000CF92DF92EF92FF920F931F93CF93DF9301
:1003F000CDB7DEB7AF970FB6F894DEBF0FBECDBF57
:100400007C016A0109EC11E01A8309831C861B86B2
:1004100088EE93E0A0E0B0E08D879E87AF87B88B31
:1004200081E491E09A878987188F0F8B198E1A8E35
:100430001B8E1C8E84E089A31DA30CA31EA21FA2E9
:1004400018A619A68091E1039091E203A091E3031D
:10045000B091E4038CA79DA7AEA7BFA78B839C8315
:10046000AD83BE8318861F82AE014C5D5F4FCE0107
:1004700001960E94170A81309105B1F4D701ED91E0
:10048000FC910088F189E02D1BA70AA78EA19FA1EE
:10049000A8A5B9A58CA79DA7AEA7BFA7A601BE0119
:1004A000665D7F4FC7010995AF960FB6F894DEBF22
:1004B0000FBECDBFDF91CF911F910F91FF90EF90B5
:1004C000DF90CF900895CF93DF93EC01888D843037
:1004D00061F00E946F08E88DF0E0EE0FFF1FE15E13
:1004E000FC4F1182108284E0888FDF91CF910895B4
:1004F0009B0190E00496982F8827642F820F931F0A
:100500000C94B9070F931F93CF93DF931F92CDB72E
:10051000DEB790E00496982F88278C01060F171FEE
:100520000E9439078FE00E945307812F0E945307D2
:10053000802F0E94530780E00E94530789830E9406
:10054000370789810F90DF91CF911F910F91089507
:100550001F93CF93DF931F92CDB7DEB7182F80E59F
:1005600090E00E94100963E070E0812F0E948202F7
:1005700089830E940F0989810F90DF91CF911F918C
:100580000895EF92FF921F93CF93DF93FC01208D8C
:10059000243011F080E01CC07B01EC0110E0812FC1
:1005A0000E94A802811102C0188F05C08831E1F3B2
:1005B0001F5F1430A1F7888D843061F3FD86EC86CF
:1005C0001A8E198E20E0A70162E00E94830881E064
:1005D000DF91CF911F91FF90EF900895CF93FC0191
:1005E000C08D80E590E00E94100960E270E08C2FE1
:1005F0000E940A0F62E070E08C2F0E94820284FD4C
:1006000019C062E070E08C2F0E94820283FF0BC051
:1006100048E162E070E08C2F0E9478020E940F098E
:1006200080E090E011C00E940F0980E590E00E94F8
:100630001009E0CF40E162E070E08C2F0E94780268
:100640000E940F0981E090E0CF910895CF93DF934E
:10065000C82FD62F472F60E170E00E9478024D2FFF
:1006600061E170E08C2FDF91CF910C947802BF9202
:10067000CF92DF92EF92FF920F931F93CF93DF936E
:1006800000D000D000D0CDB7DEB7FC01208D2430E3
:1006900009F053C06A017B018C01B12C63E070E06A
:1006A0008B2D0E948202811103C0F801B08E06C01A
:1006B0008831D9F3B394F4E0BF12F0CFF801808D04
:1006C0008430D9F196E0E3E6F1E0DE011196019085
:1006D0000D929A95E1F7F70193819F779C8394811E
:1006E0009D8395819E83B7016E5F7F4F90E0982F29
:1006F000882744E050E0845F9B4F0E948A07B60140
:10070000F801808D0E942603F801808D90E0982FDB
:10071000882746E050E0BE016F5F7F4F8A5F9B4FA6
:100720000E948A07F801128E118E20E8A60162E06D
:10073000808D0E94830881E001C080E026960FB67C
:10074000F894DEBF0FBECDBFDF91CF911F910F9107
:10075000FF90EF90DF90CF90BF900895FF920F939E
:100760001F93CF93DF93FB01DC0157961C921E92DF
:1007700056975896FC908281811109C0838181111E
:1007800006C08481811103C085818823F9F0411559
:100790005105E1F08A01EF0180E590E00E94100927
:1007A000BE016E5F7F4F2F2D30E0922F882744E0EF
:1007B00050E0845F9B4F0E948A07B8018F2D0E94F2
:1007C00026030E940F0981E090E002C080E090E0E3
:1007D000DF91CF911F910F91FF900895FC018485C7
:1007E000843011F00C94A80280E00895CF93DF9339
:1007F000FC0124852430D1F0EC010E94EE03843109
:1008000081F0882371F0883161F08C3161F4E881E6
:10081000F9810480F581E02DCE01099521E0892B35
:1008200019F420E001C021E0822F01C080E0DF91B7
:10083000CF910895CF92DF92EF92FF921F93CF93C3
:10084000DF93FC0114851430A9F1EC0180E590E000
:100850000E94100968E070E0812F0E940A0F0E9438
:100860000F090E94E1066B017C01CE010E94EE039C
:100870008823B1F061E070E080E090E00E94A7067C
:100880000E94E106DC01CB018C199D09AE09BF096C
:10089000883E9340A105B10540F38C850E946F0806
:1008A000EC85F0E0EE0FFF1FE15EFC4F118210823D
:1008B00084E08C87DF91CF911F91FF90EF90DF90C4
:1008C000CF900895FC01918D828D981761F0828DF3
:1008D000DF01A80FB11D5D968C91928D9F5F9F7374
:1008E000928F90E008958FEF9FEF0895FC01918D16
:1008F000828D981731F0828DE80FF11D858D90E083
:1009000008958FEF9FEF0895FC01918D228D892F1F
:1009100090E0805C9F4F821B91098F739927089507
:1009200082E493E00E94840421E0892B09F420E012
:10093000822F0895FC01848DDF01A80FB11DA35AF9
:10094000BF4F2C91848D90E001968F739927848FEF
:10095000A689B7892C93A089B1898C9180648C93E6
:10096000938D848D981306C00288F389E02D8081D1
:100970008F7D80830895EF92FF920F931F93CF9303
:10098000DF93EC0181E0888F9B8D8C8D981305C0DF
:10099000E889F989808185FD24C0F62E0B8D10E051
:1009A0000F5F1F4F0F731127E02E8C8DE8120CC0C4
:1009B0000FB607FCFACFE889F989808185FFF5CF6A
:1009C000CE010E949A04F1CF8B8DFE01E80FF11D3C
:1009D000E35AFF4FF0820B8FEA89FB8980818062A6
:1009E00007C0EE89FF896083E889F9898081806486
:1009F000808381E090E0DF91CF911F910F91FF9074
:100A0000EF900895CF93DF93EC01888D8823C9F090
:100A1000EA89FB89808185FD05C0A889B9898C9107
:100A200086FD0FC00FB607FCF5CF808185FFF2CFA2
:100A3000A889B9898C9185FFEDCFCE010E949A04D7
:100A4000E7CFDF91CF91089580E090E0892B29F0E6
:100A50000E94900481110C94000008953FB7F8940F
:100A600080912E0390912F03A0913003B091310318
:100A700026B5A89B05C02F3F19F00196A11DB11DF9
:100A80003FBFBA2FA92F982F8827820F911DA11D34
:100A9000B11DBC01CD0142E0660F771F881F991F71
:100AA0004A95D1F708958F929F92AF92BF92CF92BD
:100AB000DF92EF92FF920F931F93CF93DF937C010E
:100AC000EB016C0182E0C80ED11C4701E5E08E0EFF
:100AD000911C00E010E0F60141916F0150E060E0F0
:100AE00070E02AE0CE010E942B105C01E881F981C0
:100AF0000190F081E02D6EE2CE0109958A0D9B1DDB
:100B0000080F191FC814D90431F7F701458150E0C7
:100B100060E070E02AE0CE010E942B10800F911F50
:100B2000DF91CF911F910F91FF90EF90DF90CF90C9
:100B3000BF90AF909F908F9008950E94A11F1F9328
:100B4000CF93DF93182F66E270E00E948202C82FD5
:100B5000D0E067E270E0812F0E948202DC2FCC2778
:100B60009E01282BC901DF91CF911F91089529EC97
:100B700031E0FC0131832083FB014081518162819E
:100B80007381FC01428353836483758308951F92AC
:100B90000F920FB60F9211242F933F934F935F93B1
:100BA0006F937F938F939F93AF93BF93EF93FF9335
:100BB00082E493E00E949A04FF91EF91BF91AF917C
:100BC0009F918F917F916F915F914F913F912F9165
:100BD0000F900FBE0F901F9018951F920F920FB697
:100BE0000F9211242F938F939F93EF93FF93E09194
:100BF0005203F09153038081E0915803F09159031F
:100C000082FD12C0908180915B038F5F8F73209172
:100C10005C03821751F0E0915B03F0E0EE5BFC4F68
:100C2000958F80935B0301C08081FF91EF919F912D
:100C30008F912F910F900FBE0F901F90189590E0FD
:100C4000FC01EE58FF4F3491FC01E255FF4F249117
:100C5000FC01E656FF4FE491EE2309F43BC0332339
:100C600039F1333091F038F43130A9F0323001F5F8
:100C700084B58F7D12C0373091F03830A1F0343018
:100C8000B9F4809180008F7D03C0809180008F77C0
:100C9000809380000DC084B58F7784BD09C080919A
:100CA000B0008F7703C08091B0008F7D8093B0003B
:100CB000F0E0EE0FFF1FEA57FF4FA591B4918FB7F9
:100CC000F894EC91611103C020952E2301C02E2BC6
:100CD0002C938FBF0895CF93DF9390E0FC01E255F2
:100CE000FF4F2491FC01E656FF4F8491882361F168
:100CF00090E0880F991FFC01E859FF4FC591D491EE
:100D0000FC01EA57FF4FA591B491611109C09FB74B
:100D1000F8948881209582238883EC912E230BC040
:100D2000623061F49FB7F8943881822F80958323D5
:100D30008883EC912E2B2C939FBF06C08FB7F8941D
:100D4000E8812E2B28838FBFDF91CF9108958F925A
:100D50009F92AF92BF92CF92DF92EF92FF926B0180
:100D60007C010E942E054B015C01C114D104E104F9
:100D7000F104F1F00E942E05DC01CB0188199909DC
:100D8000AA09BB09883E9340A105B10570F321E093
:100D9000C21AD108E108F10888EE880E83E0981E97
:100DA000A11CB11CC114D104E104F10419F7DDCF79
:100DB000FF90EF90DF90CF90BF90AF909F908F907B
:100DC00008952FB7F89460912A0370912B038091B6
:100DD0002C0390912D032FBF08951F920F920FB6F1
:100DE0000F9211242F933F938F939F93AF93BF93B1
:100DF00080912A0390912B03A0912C03B0912D0395
:100E00003091290323E0230F2D3720F40196A11DF3
:100E1000B11D05C026E8230F0296A11DB11D209328
:100E2000290380932A0390932B03A0932C03B09360
:100E30002D0380912E0390912F03A0913003B09148
:100E400031030196A11DB11D80932E0390932F03B2
:100E5000A0933003B0933103BF91AF919F918F91D5
:100E60003F912F910F900FBE0F901F9018952A9AC7
:100E700008952A9808951F93CF93DF93182F60E267
:100E800070E00E948202C82FD0E061E270E0812F02
:100E90000E948202DC2FCC279E01282BC901DF9102
:100EA000CF911F9108958EBD00000DB407FEFDCFB8
:100EB0008EB50895CF92DF92EF92FF920F931F931A
:100EC000CF93DF93EC017A018B016C01C40ED51E28
:100ED000CC15DD05A9F00E9439078FE00E94530769
:100EE0008D2F0E9453078C2F0E945307219680E07C
:100EF0000E945307F80181938F010E943707E8CFC2
:100F0000C701DF91CF911F910F91FF90EF90DF907C
:100F1000CF900895CF92DF92EF92FF920F931F939D
:100F2000CF93DF93EC017A018B016C01C40ED51EC7
:100F3000CC15DD05A1F00E94390780EF0E94530710
:100F40008D2F0E9453078C2F0E9453072196F80182
:100F500081918F010E9453070E943707E9CFC70193
:100F6000DF91CF911F910F91FF90EF90DF90CF9085
:100F700008951F93CF93DF9300D0CDB7DEB7182F1E
:100F80006A8399830E94390780EF0E9453079981F1
:100F9000892F0E945307812F0E9453076A81862F51
:100FA0000E9453070E94370781E00F900F90DF9156
:100FB000CF911F9108951F93CF93DF9300D0CDB7AA
:100FC000DEB7182F80E590E069837A830E941009CC
:100FD00021E041E050E069817A81812F0E941A0F5F
:100FE0000E940F0981E090E00F900F90DF91CF9168
:100FF0001F910895FF920F931F93CF93DF93F82EC5
:1010000080E590E00E941009C0E0D0E08F2D0E94A2
:101010009F058C01892B21F08F2D0E949F05EC01EB
:10102000C017D10799F70E940F09CE01DF91CF9128
:101030001F910F91FF900895AF92BF92CF92DF92D0
:10104000EF92FF921F93CF93DF93182F5B017A01EA
:1010500080E590E00E941009C0E0D0E0812F0E945E
:101060009F056C01892B21F0812F0E949F05EC01C7
:10107000CC15DD0599F7209799F463E070E0812F96
:101080000E9482028431F1F08823E1F0C1E0D0E0D7
:101090008C3111F4C0E0D0E0D195C195D10912C0D6
:1010A000EC16FD060CF4E7011C161D065CF420E0AE
:1010B000AE01B501812F0E941A0F60E470E0812F0C
:1010C0000E940A0F0E940F09CE01DF91CF911F915C
:1010D000FF90EF90DF90CF90BF90AF900895CF93A7
:1010E000C82F80E590E00E94100960E170E08C2F2D
:1010F0000E940A0F4FEF62E070E08C2F0E9478028E
:10110000CF910C940F09FF920F931F93CF93DF930E
:1011100000D0CDB7DEB7F82E8A012A8369830E94FA
:101120006F0880E590E00E9410092A816981462FAE
:10113000422B60E070E08F2D0E94780201151105AE
:1011400051F400912703109128030F5F1F4F109354
:10115000280300932703412F64E070E08F2D0E9445
:101160007802402F65E070E08F2D0E94780261E0E8
:1011700070E08F2D0E940A0F0E940F0981E00F90EE
:101180000F90DF91CF911F910F91FF900895CF9312
:10119000DF931F92CDB7DEB76983DC01ED91FC913F
:1011A0000280F381E02D41E050E0BE016F5F7F4F90
:1011B00009950F90DF91CF910895DC01ED91FC919D
:1011C000048CF58DE02D099591E089270895862FEF
:1011D000089581E086270895CF93DF931F92CDB7BE
:1011E000DEB741E050E0BE016F5F7F4FFC018485B8
:1011F0000E941C08181619061CF4898190E002C090
:101200008FEF9FEF0F90DF91CF910895FC018485C0
:10121000843011F00C94FA0780E090E0089508956E
:101220008CBD9DBD08958F929F92AF92BF92CF9239
:10123000DF92EF92FF920F931F93CF936C015B01AC
:101240007A01FC01C485C43041F481E090E0F601EC
:101250009383828380E090E04EC08A014130584001
:1012600010F000E018E080E590E00E9410098C2F5B
:101270000E94E70F4C0163E070E08C2F0E94820215
:10128000873111F08C3121F48016910660F302C091
:1012900000E010E080E590E00E9410099801A501AF
:1012A00060E070E08C2F0E94820F60E270E08C2F73
:1012B0000E940A0F62E070E08C2F0E94820284FD7F
:1012C00010C063E070E08C2F0E948202811104C084
:1012D0008C2F0E946F08B9CF80E590E00E94100922
:1012E000E9CF40E162E070E08C2F0E947802012B90
:1012F00009F4ABCFC701CF911F910F91FF90EF90F1
:10130000DF90CF90BF90AF909F908F900895CF9235
:10131000DF92FF920F931F93CF93DF93FC012485FD
:10132000243009F077C06A01EB018C01F12C8F2D7C
:101330000E94A802811103C0F801F48607C08B7FC8
:101340008831D1F3F394F4E0FF12F1CFF8018485F2
:10135000843009F45FC020910601309107012F5FAE
:101360003F4F11F420E030EC309307012093060149
:10137000409106015091070120E061E00E9483083E
:10138000F801F4848A818F3F51F48B818F3F91F46F
:101390008C818F3F79F48D818F3F61F438C081114A
:1013A00009C08B81811106C08C81811103C08D81A0
:1013B000882369F1C114D10451F180E590E00E94C5
:1013C0001009BE016E5F7F4F8F2D90E0982F882708
:1013D00044E050E0845F9B4F0E948A07B6018F2D46
:1013E0000E94260364E070E08F2D0E940A0FC8015E
:1013F0000E94EE03873189F061E070E080E090E0C8
:101400000E94A706C8010E94EE038111F0CF84E07C
:10141000F801848780E090E002C081E090E0DF91F5
:10142000CF911F910F91FF90DF90CF9008952F9251
:101430003F924F925F926F927F928F929F92AF9264
:10144000BF92CF92DF92EF92FF920F931F93CF93B1
:10145000DF93CDB7DEB765970FB6F894DEBF0FBE4A
:10146000CDBF7C016B013A01FB0120E080E090E000
:101470006AE03191332309F140ED430F4A3080F4A3
:10148000689FA001699F500D1124CA01C097830F66
:10149000911D37FD9A958F3F910559F350F313C075
:1014A0003E3289F4233079F0D301A20FB11D129698
:1014B0008C932F5F80E090E0DCCF233021F4F301A8
:1014C000858381E021C0F701428153816481758168
:1014D0008091E9039091EA03A091EB03B091EC03B2
:1014E000481759076A077B0709F49EC10E94E10665
:1014F0008701085F1F4F6F7077277C5FC8010E94CC
:10150000C102813019F080E090E0F3C189EC91E0F4
:101510009A838983F70182819381A481B5818B832A
:101520009C83AD83BE8345E350E0BE016F5F7F4F78
:10153000C8010E94AE03892B19F4C12CD12C6FC1B4
:101540000E94E106F701778366837627672776276F
:101550007A83698342E050E0BE016F5F7F4FC8012C
:101560000E94B80181E090E09E878D8742E050E0C4
:10157000BE01635F7F4FC8010E94B80180E091E027
:101580009E878D8742E050E0BE01635F7F4FC801B8
:101590000E94B8011E861D8642E050E0BE01635FD6
:1015A0007F4FC8010E94B80142E050E0BE01635F76
:1015B0007F4FC8010E94B80142E050E0BE01635F66
:1015C0007F4FC8010E94B8015601F5018081882330
:1015D00011F1F6015F018191811115C045018C184F
:1015E0009D081814190494F48F8641E050E0BE0160
:1015F000615F7F4FC8010E94B801A401B601C80114
:101600000E94B80103C08E3229F7E8CF6501FFEFD1
:10161000CF1ADF0ADACF1F8641E050E0BE01615FDA
:101620007F4FC8010E94B801C12CDD24D394DE860F
:10163000CD8642E050E0BE01635F7F4FC8010E944B
:10164000B801DE86CD8642E050E0BE01635F7F4F89
:10165000C8010E94B801C8010E94EE02892B09F45A
:101660006CCF63E0A62EB12CF2E06F0E711C0E94CD
:10167000E1061B012C01C8010E945F011816190622
:10168000A4F00E94E106DC01CB0182199309A409B0
:10169000B50989389341A105B105D0F462E370E042
:1016A00080E090E00E94A706E6CFF70142815381D7
:1016B00064817581808D918DA28DB38D48175907F6
:1016C0006A077B0741F4848D958DC59721F406C088
:1016D0002FEF3FEF9AC02EEF3FEF97C0F70181A1A8
:1016E00092A10C970CF4A6C04CE050E0BE016F5FD5
:1016F0007F4FC8010E9413018B8190E0982F8827AB
:101700002C81822B9A8B898B298130E0322F2227E2
:101710004A81242BF701468157814217530709F06C
:1017200086C097FF84C08F709270892B09F0DEC04D
:10173000CF80D12CDC2CCC248885C82AC114D104BC
:1017400009F4D1C0812C912C8D8190E0982F8827AD
:101750002E81822B8816990608F46FC0812C912C5B
:1017600041E050E0BE016D5E7F4FC8010E94130151
:101770008B89982F907C09F093C0811186C08B894A
:101780008111EECF42E050E0BE01615F7F4FC801A2
:101790000E94130142E050E0BE01635F7F4FC80129
:1017A0000E941301C8010E943201C8010E94320147
:1017B000C8010E943201C8010E94320142E050E09B
:1017C000BE016F5E7F4FC8010E9413018F8598890B
:1017D0008115914009F069C02D853E853227232768
:1017E00032272130310509F060C089899A89811535
:1017F000944009F075C044E050E0B301C8012C8B5F
:101800003D8B0E9413012C893D896901F1E0AF1ADB
:10181000B10829F02FEFC216D20609F428CFC8016B
:101820000E946302C60165C08EEF9FEF62C02CEF7D
:101830003FEFEBCF2DEF3FEFE8CF41E050E0BE01AF
:10184000635F7F4FC8010E9413018D85811113C012
:101850008D858111F2CFC8010E943201C8010E941A
:101860003201C8010E943201C8010E943201FFEF1B
:101870008F1A9F0A69CF8D859FEF980F9D878823C8
:1018800039F3C8010E943201F6CF8B899FEF980F80
:101890009B8B882309F473CFC8010E943201F5CFD6
:1018A000C8010E9432011B8A6ACF412C512C8989C0
:1018B0009A899827892798274816590638F4C80125
:1018C0000E9432018FEF481A580AF1CFEFEF8E1ABB
:1018D0009E0A8C149D0409F043CF26EF3FEF95CF6D
:1018E00027EF3FEF92CF2AEF3FEF8FCF2BEF3FEF66
:1018F0008CCF65960FB6F894DEBF0FBECDBFDF91DB
:10190000CF911F910F91FF90EF90DF90CF90BF90FC
:10191000AF909F908F907F906F905F904F903F908F
:101920002F900895CF92DF92EF92FF920F931F9323
:10193000CF93DF93CDB7DEB7AF970FB6F894DEBF86
:101940000FBECDBF7C016A0109EC11E01A83098347
:101950001C861B8688EE93E0A0E0B0E08D879E8712
:10196000AF87B88B81E491E09A878987188F0F8BB6
:10197000198E1A8E1B8E1C8E84E089A31DA30CA3C6
:101980001EA21FA218A619A68091E1039091E2035E
:10199000A091E303B091E4038CA79DA7AEA7BFA7D6
:1019A0008B839C83AD83BE8318861F82AE014C5D02
:1019B0005F4FCE0101960E94170A81309105B1F464
:1019C000D701ED91FC910484F585E02D1BA70AA7B2
:1019D0008EA19FA1A8A5B9A58CA79DA7AEA7BFA7BB
:1019E000A601BE01665D7F4FC7010995AF960FB690
:1019F000F894DEBF0FBECDBFDF91CF911F910F9145
:101A0000FF90EF90DF90CF900895CF92DF92EF920A
:101A1000FF920F931F93CF93DF936C017A018B0199
:101A2000C0E0D0E0CE15DF0589F0D8016D918D01C1
:101A3000D601ED91FC910190F081E02DC601099550
:101A4000892B11F47E0102C02196ECCFC701DF91F2
:101A5000CF911F910F91FF90EF90DF90CF9008955D
:101A6000CF92DF92EF92FF92CF93DF93EC010E942F
:101A7000E1066B017C018091ED039091EE03DC01A6
:101A8000ED91FC910480F581E02D0995892B79F485
:101A90000E94E106AB01BC014C195D096E097F098A
:101AA00048395A436105710530F380E00DC08091DB
:101AB000ED039091EE03DC01ED91FC910680F7813E
:101AC000E02D0995888381E0DF91CF91FF90EF9021
:101AD000DF90CF9008958091ED039091EE030097F1
:101AE00059F1DC01ED91FC910488F589E02D09950F
:101AF000811124C08091880490918904892BE1F49C
:101B00008DEF9FEF90938904809388048091ED037B
:101B10009091EE03DC01ED91FC910284F385E02DC0
:101B200009958091ED039091EE03DC01ED91FC911C
:101B30000288F389E02D099580E0089581E00895F9
:101B4000CF93DF93DC014E5F5F4FFC019F012A1BA7
:101B50003B0B9191992339F0EB01C40FD51F98836A
:101B60004F5F5F4FF3CFCA01821B930B680F791F42
:101B7000FB013297308331962083CA01DF91CF91E8
:101B80000895CF92DF92EF92FF920F931F93CF931E
:101B9000DF9300D000D0CDB7DEB79A01E0E0922FFE
:101BA0009F77220F232F221F330B319521153105EB
:101BB00009F0906801E00E0FA1E0B0E0AC0FBD1F8E
:101BC000AE0FB11DFD0190832115310511F0E02FFD
:101BD000E6CF10E0DB01A01BB10B14968C93FE0145
:101BE00031966F0180E090E08017910764F4F60170
:101BF000F1906F019C01201B310B260F371FF9015B
:101C0000F5820196F1CF8091ED039091EE034F5F45
:101C10005F4F040F151FFC0120813181F9012281E2
:101C20003381A801BD01F90109957C010E94E106FB
:101C3000609371047093720480937304909374049E
:101C400081E0E016F10609F080E00F900F900F9010
:101C50000F90DF91CF911F910F91FF90EF90DF9048
:101C6000CF9008955F926F927F928F929F92AF92E2
:101C7000BF92CF92DF92EF92FF920F931F93CF9379
:101C8000DF931F92CDB7DEB74C018FEE93E00E9439
:101C9000300D811126C022C00F5F1F4F8981F801CE
:101CA000E351FC4F8183282F2F7730E02C9DA0013A
:101CB0002D9D500D3C9D500D1124A40EB51E37E0F6
:101CC000CC0CDD1CEE1CFF1C3A95D1F787FF15C02C
:101CD000CE0101960E94300D8111DECF80E090E0B0
:101CE00088C07090EF03198201E010E0A12CB12CA4
:101CF000C12CD12C7601C394EBCF872D807F552446
:101D00005394803309F0512C8FEF800FD4018C93C2
:101D1000552021F1C80181519C4F0E94300D88232C
:101D2000E9F2C80180519C4F0E94300D8823B1F226
:101D30000E5F1F4FD401EC91F0E0E351FC4FE380C4
:101D4000F12CFE2CEE248481E80EF11C8091EF032F
:101D500081FF08C0B2E0EB0EF11C04C080E0E12C72
:101D6000F12C01C082E0C82ED12CC01AD10A9EEFFE
:101D7000692E77247A94C601800F911F8A159B05DE
:101D800068F5CE0101960E94300D882309F4A6CF94
:101D900080918604909187040097A9F0552099F0CE
:101DA000F4012081A301421B51099A01200F311F28
:101DB000E216F30640F4DC01ED91FC910190F08114
:101DC000E02D698109950038110528F48981F80111
:101DD000E351FC4F82830F5F1F4FCDCF809186046C
:101DE00090918704892B21F40138110508F076CFF2
:101DF000C8010F90DF91CF911F910F91FF90EF904D
:101E0000DF90CF90BF90AF909F908F907F906F901A
:101E10005F900895CF93C82F462F61E070E00E9435
:101E2000780261E070E08C2F0E9482028111F9CF6C
:101E3000CF9108958F929F92AF92BF92CF92DF92EF
:101E4000EF92FF920F931F93CF93DF93B82E4B0126
:101E50008A01A22E68E270E00E948202C82FD0E0C0
:101E600069E270E08B2D0E948202DC2FCC27C82B08
:101E70009E013770CB2CD12CC601880F991FAC0165
:101E8000465C5C4F6A01FA0180819181820F931F49
:101E9000A801420F531F4130584098F060E078E0AD
:101EA0007B01E21AF30AA701B4010E945A07A801B4
:101EB0004E195F09B4016E0D7F1DF601808191817D
:101EC00002C0A801B4010E945A07A1100EC0C00FA1
:101ED000D11F4D2F68E270E08B2D0E9478024C2FAD
:101EE00069E270E08B2D0E947802DF91CF911F9103
:101EF0000F91FF90EF90DF90CF90BF90AF909F90A9
:101F00008F9008959F92AF92BF92CF92DF92EF92FF
:101F1000FF920F931F93CF93DF93982E8B015A015B
:101F2000690164E270E00E948202E82EF12C65E211
:101F300070E0892D0E948202FE2CEE24E82AE7013F
:101F4000C00FD11F9E013770E92CF12CC701880FFB
:101F5000991FAC014E5C5C4F7A01FA01808191813E
:101F6000820F931FA9014C0D5D1D4130584090F028
:101F700000E018E0021B130BA801B5010E948A07BC
:101F8000A601401B510BB501600F711FF701808145
:101F9000918102C0A601B5010E948A07CC0DDD1D0A
:101FA0004D2F64E270E0892D0E9478024C2F65E28B
:101FB00070E0892DDF91CF911F910F91FF90EF90ED
:101FC000DF90CF90BF90AF909F900C947802FF92DB
:101FD0000F931F93CF93DF93F82EC0E0D0E08F2DA7
:101FE0000E943B078C01892B21F08F2D0E943B071B
:101FF000EC01C017D10799F7CE01DF91CF911F9166
:102000000F91FF9008956115710579F0FB01019022
:102010000020E9F73197AF01461B570BDC01ED912A
:10202000FC910280F381E02D099480E090E0089516
:10203000CF93DF93BC0182E493E00E940310EC0194
:1020400069E072E082E493E00E9403108C0F9D1F10
:10205000DF91CF9108954F925F926F927F92EF92AE
:10206000FF920F931F93CF93DF93CDB7DEB7A19766
:102070000FB6F894DEBF0FBECDBF7C01FA01CB01D5
:1020800019A2223008F42AE08E010F5D1F4F422E64
:10209000512C612C712CBF01A30192010E94C4201C
:1020A000F901CA01015011096A3014F4605D01C0E0
:1020B000695CD8016C93232B242B252B61F7B80185
:1020C000C7010E940310A1960FB6F894DEBF0FBEA1
:1020D000CDBFDF91CF911F910F91FF90EF907F9037
:1020E0006F905F904F900895CF92DF92EF92FF92A2
:1020F0000F931F93CF93DF93EC016A017B01E8817B
:10210000F9810190F081E02D6DE209958C01442761
:102110005527BA014C195D096E097F092AE0CE01E5
:102120000E942B10800F911FDF91CF911F910F9173
:10213000FF90EF90DF90CF90089580E3FB018083C4
:102140003296842F82958F7090E1899F40191124D7
:102150004A3014F4405D01C0495C4293482F81111C
:10216000F0CF08952091B6023091B70228173907B1
:1021700071F49091B4028091B502981741F0E0910A
:10218000B402F0E0E451FB4F808190E008958FEFBE
:102190009FEF089508951F93CF93DF93DC015C9622
:1021A0002D913C915D972115310539F481E090E046
:1021B00013969C938E9312973DC05196ED91FC918E
:1021C000529750969C915097892F80951FB75E9695
:1021D0004C915E9741FB772770F941FD6095F8942B
:1021E0004081772311F0492B01C048234083E90146
:1021F0002197F1F748E0508160FF02C0592B01C0E0
:1022000058235083E9012197F1F76695415099F7DA
:10221000772321F090818923808303C08081982BCC
:1022200090831FBF5C968D919C915D970197F1F70C
:1022300021E030E0C901DF91CF911F9108952091F5
:10224000B6023091B7022817390771F48091B502B0
:102250002091B40290E0805C9F4F821B910960E462
:1022600070E00E94751D089580E090E0089520912F
:10227000B6023091B70228173907B9F49091B40229
:102280008091B502981789F0E091B402F0E0E45132
:10229000FB4F80812091B40230E02F5F3F4F2F73BE
:1022A00033272093B40290E008958FEF9FEF0895B5
:1022B000EF92FF920F931F93CF93DF93EC017B017B
:1022C00068E972E082E493E00E940310BE0182E4B8
:1022D00093E00E9403106AEA72E082E493E00E94B5
:1022E0000310E114F104B9F0F70101900020E9F7BF
:1022F00031978F010E191F09B8016F5F7F4F80E082
:1023000090E00E94D71EEC01009751F01882B701AF
:102310000E94BC1F07C000E010E0C0E0D0E002C097
:1023200000E010E0A801BE0182E493E00E94050DE8
:1023300069E072E082E493E00E940310209761F06C
:10234000CE010E941F20AB01BC0177FF08C087E9C6
:1023500094E00E94741008C040E050E0BA012AE006
:1023600087E994E00E942B1069E072E087E994E02D
:102370000E940310CE01DF91CF911F910F91FF902A
:10238000EF900C943F1E2F923F924F925F926F926C
:102390007F928F929F92AF92BF92CF92DF92EF92F5
:1023A000FF920F931F93CF93DF93CDB7DEB7E397E1
:1023B0000FB6F894DEBF0FBECDBF7C011A012B0112
:1023C00039010E94E1064B015C0187010D5B1F4F43
:1023D000C8010E945F0118161906A4F00E94E106C8
:1023E000DC01CB0188199909AA09BB09281639060D
:1023F0004A065B06D8F062E370E080E090E00E945D
:10240000A706E6CF42E250E0BE016F5F7F4FC801F2
:102410000E9413018981823011F080E061C1F801CE
:102420008489958983349105C1F702C08FEF58C123
:102430006D817E818F8198850E94891D4B015C0191
:10244000F301608371838283938346E050E0B70198
:10245000685F7F4FCE014D960E94A61F892BE9F63B
:10246000F70180819181A281B38188169906AA061D
:10247000BB0698F284819581A681B781881599055C
:10248000AA05BB0550F289899A89AB89BC898687E0
:102490009787A08BB18B8EECA82EB12CC8010E941F
:1024A0003201F1E0AF1AB108C9F719A6670182E25B
:1024B000C80ED11CF701B696FBA7EAA7C7018A96FA
:1024C0009DA78CA73C974F0189969FA78EA7389709
:1024D000F9ABE8AB1701F6E12F0E311CC5979BABAA
:1024E0008AABF801818D928D181619060CF0F7C091
:1024F000C8010E9432018333910509F4CBC0FCF47A
:1025000081309105C9F11CF4892B59F3DCC083306B
:102510009105D1F1069709F0D6C0C8010E94320199
:102520005C0144E050E06AA97BA9C8010E94130144
:10253000412C512CBB24F4E0AF1AB10840C08A33BF
:10254000910509F47BC03CF48533910569F0C69789
:1025500009F440C0B8C08B33910509F485C08F3FA2
:10256000910509F4BECFAFC0C8010E943201C80175
:102570000E94320189A7B5CFC8010E94320144E010
:1025800050E068A979A93AC0C8010E9432015C01F3
:1025900044E050E0B101C8010E941301412C512CCC
:1025A000BB2494E0A91AB1084A145B040CF099CF3B
:1025B000C8010E943201EFEF4E1A5E0AF5CF4A14AD
:1025C0005B040CF08ECFC8010E9432018FEF481AD5
:1025D000580AF5CFC8010E943201B82EF701828D4A
:1025E000811110C0838D81110DC0848D81110AC0AD
:1025F000858D811107C044E050E0B401C8010E94FC
:1026000013016FCFEEA5FFA54080518062807380DB
:10261000B401CE0183960E94B7058DA19EA1AFA102
:10262000B8A584159505A605B70529F3BB2009F4BF
:1026300058CFC8010E943201BA94F8CFC8010E9455
:10264000320144E050E06AA57BA5C8010E94130155
:10265000F70166A177A180A591A50E94891D66A3B7
:1026600077A380A791A73DCFC8010E94320144E023
:1026700050E06CA57DA5C8010E941301F70162A579
:1026800073A584A595A50E94891D62A773A784A739
:1026900095A727CFC8010E94320144E050E0B6015F
:1026A000C8010E941301F70162A173A184A195A141
:1026B0000E94891D62A373A384A395A366A777A72D
:1026C00080AB91AB0ECFC8010E943201B82EBB2067
:1026D00009F407CFC8010E943201BA94F8CF89A546
:1026E000E3960FB6F894DEBF0FBECDBFDF91CF915A
:1026F0001F910F91FF90EF90DF90CF90BF90AF9020
:102700009F908F907F906F905F904F903F902F9011
:1027100008957F928F929F92AF92BF92CF92DF9255
:10272000EF92FF920F931F93CF93DF93CDB7DEB756
:10273000A6970FB6F894DEBF0FBECDBF8C01762EE4
:10274000942E852E20E2B22ECE0101967C01FC0152
:102750002B2D11922A95E9F789EC91E09AA389A390
:102760008FEF8BA38CA38DA38EA3680183E4C80E87
:10277000D11C43E450E0BE016F5D7F4FC6010E9453
:10278000AE03019609F4BFC081E089838A8386E0A5
:10279000A82EAB821C82F8016481758186819781A5
:1027A0000E94891D6D837E838F83988789869A8690
:1027B00080E890E09C878B874CE150E0B701C60130
:1027C0000E94B801F7012B2D11922A95E9F74801D3
:1027D00088E0880E911CF401D70101900D92AA9413
:1027E000E1F740E150E0B701C6010E94B801F701EE
:1027F0001192BA94E9F796E0A92EB12C40E250E08C
:10280000B701C6010E94B801F1E0AF1AB108B1F7F3
:1028100083E6898392E89A8393E59B838C8385E39F
:102820008D8381E08E837F829DE3988797E09987EF
:102830008A8786E0F401DE011B9601900D928A954D
:10284000E1F78CE0898B8A8B6DEA72E0CE014396CA
:102850000E94BC1FF8014385BE01675E7F4FC8011F
:102860000E949D10F8014485BE01655E7F4FC8013E
:102870000E949D10F8014585BE01635E7F4FC8012F
:102880000E949D104EE150E0B701C6010E94B801C0
:10289000F3E07F121EC082E3898384E08A83F8011B
:1028A00096859B8397859C8390899D8391899E8340
:1028B00096E39F838887828D8987838D8A87848D1D
:1028C0008B87858D8C874CE050E0B701C6010E9454
:1028D000B80187E3898386E08A8391E09B8393E054
:1028E0009C838D838FE08E838AE38F838BE388873D
:1028F0008FEF898749E050E0B701C6010E94B80117
:10290000C6010E94EE02A6960FB6F894DEBF0FBE77
:10291000CDBFDF91CF911F910F91FF90EF90DF908E
:10292000CF90BF90AF909F908F907F9008951F920F
:102930000F920FB60F9211242F933F934F935F93F3
:102940006F937F938F939F93AF93BF93EF93FF9377
:10295000E091B602F091B702309709F451C0968D1C
:10296000A685B785858591FF04C09C91892329F4AC
:1029700047C09C91892309F043C0A389B4899C91E5
:102980008589809589238C93868997890197F1F7AA
:10299000608D718DA685B785558538E020E0CB0127
:1029A0000197F1F7822F90E095958795282F4C910C
:1029B000452309F02068315091F7868D81FD2095DF
:1029C0008091B50290E001968F7399273091B402FF
:1029D000381749F0A091B502B0E0A451BB4F2C9339
:1029E0008093B50203C0868D8160868F828D938D22
:1029F0000197F1F7A389B4899C918589892B8C93E0
:102A0000FF91EF91BF91AF919F918F917F916F91C6
:102A10005F914F913F912F910F900FBE0F901F909C
:102A20001895E091B602F091B702E817F90769F43A
:102A3000A389B4899C918589809589238C93109270
:102A4000B7021092B60281E0089580E00895CF9316
:102A5000DF93CDB7DEB72B970FB6F894DEBF0FBE6E
:102A6000CDBF789484B5826084BD84B5816084BD17
:102A700085B5826085BD85B5816085BD80916E001C
:102A8000816080936E00109281008091810082604D
:102A9000809381008091810081608093810080918A
:102AA00080008160809380008091B1008460809379
:102AB000B1008091B00081608093B00080917A0075
:102AC000846080937A0080917A00826080937A009B
:102AD00080917A00816080937A0080917A0080688A
:102AE00080937A001092C100E0915203F091530359
:102AF00082E08083E0914E03F0914F031082E091D9
:102B00005003F09151038FEC808310925A03E091AF
:102B10005603F091570386E08083E0915403F091CF
:102B20005503808180618083E0915403F0915503C7
:102B3000808188608083E0915403F0915503808107
:102B400080688083E0915403F091550380818F7DEC
:102B5000808381ED91E00E9418108091170381110C
:102B60002AC01092FF021092FE0288EE93E0A0E0CD
:102B7000B0E08093000390930103A0930203B0930D
:102B8000030381E491E09093FD028093FC0289ECC1
:102B900091E090930B0380930A0310920C03109220
:102BA0000D0310920E0310920F0384E08093140320
:102BB00081E08093170389EB92E09093E603809382
:102BC000E5036CE271E080E090E00E94A7061FB789
:102BD000F8948091B802811127C0E4EAF0E0849172
:102BE000E8EBF0E09491E82FF0E0EE0FFF1FE859DA
:102BF000FF4FA591B491EC91E92321F461E08AE0C3
:102C00000E941F0661E08AE00E946B068CB580611D
:102C10008CBD8CB580648CBD61E08DE00E946B063C
:102C200061E08BE00E946B068091B8028F5F809319
:102C3000B8021FBF229A80E590E00E94100960E868
:102C400080E090E00E94B90765E58BE190E00E948A
:102C5000B90765E58AE190E00E94B9070E940F0973
:102C600080E090E4909333038093320380E090E619
:102C700090933B0380933A0380E098E4909335036C
:102C80008093340380E098E690933D0380933C0367
:102C900080E090E5909337038093360380E090E7DF
:102CA00090933F0380933E0380E098E5909339032F
:102CB0008093380380E098E790934103809340032A
:102CC00080E590E00E94100946E050E060E071E08D
:102CD00089E090E00E948A0789EC91E09A838983D9
:102CE0001B821C821D821E8244E050E0BE016D5F8B
:102CF0007F4F8FE090E00E948A070E940F090091A9
:102D0000E5031091E603D80192961D921D921D9243
:102D10001C929597F80116A217A210A611A69A96D2
:102D20001D921D921D921C929D9780E69AEEA0E046
:102D3000B0E086AB97ABA0AFB1AF80EA9FE0A0E078
:102D4000B0E082AF93AFA4AFB5AFD801189686E0DC
:102D5000FD01282F11922A95E9F79801225F3F4F34
:102D600094E1F90111929A95E9F7E0E0F1E0019020
:102D70000D928A95E1F77801F2E4EF0EF11CD7018C
:102D80001C920E9411202FEC37E040E050E00E949E
:102D90005B20DC01CB010196A11DB11DF8018483EC
:102DA0009583A683B78380839183A283B3835801DD
:102DB000F3E4AF0EB11CC5010E94630264E470E04D
:102DC000C5010E94C102811105C081EE91E00E94FF
:102DD00018108AC10E94E1062B013C01812C912C24
:102DE000D12C43E0342E52E0C52ED7018C91833094
:102DF00009F404C1811121C0F80184819581A68163
:102E0000B7810196A11DB11D84839583A683B783E5
:102E10000E94E106641975098609970928EE33E0D6
:102E200040E050E00E94C420A90161E0C8010E9476
:102E3000891381E0D7018C93C3C0843001F5F80178
:102E400084819581A681B7810196A11DB11D8483DE
:102E50009583A683B7830E94E106641975098609E4
:102E6000970928EE33E040E050E00E94C420A90119
:102E700063E0C8010E948913D701CC92A1C08130C0
:102E800061F5F80142AD53AD64AD75AD9E012F5FA4
:102E90003F4FC8010E94C311D82EF2E08F1390C09B
:102EA00089819A81AB81BC81F80184839583A68353
:102EB000B7830E94E106641975098609970928EE0F
:102EC00033E040E050E00E94C420A90163E0C80163
:102ED0000E948913D701DC9279C0823009F070C05A
:102EE000F80142AD53AD64AD75AD9E012F5F3F4F0C
:102EF000C8010E94C311D82EF5E08F135BC0D70123
:102F00003C92F80182A193A1A4A1B5A1892B8A2B9F
:102F10008B2B41F424E833E040E050E022A333A3BC
:102F200044A355A3F80186A197A1A0A5B1A5892B1B
:102F30008A2B8B2B61F482A193A1A4A1B5A1B69594
:102F4000A7959795879586A397A3A0A7B1A7F80102
:102F500082A593A5A4A5B5A5892B8A2B8B2BA9F4B3
:102F600082A193A1A4A1B5A1AC01BD0123E07695F6
:102F70006795579547952A95D1F7841B950BA60B16
:102F8000B70B82A793A7A4A7B5A7F80186A197A11D
:102F9000A0A5B1A586A797A7A0ABB1AB82A593A525
:102FA000A4A5B5A582AB93ABA4ABB5AB88248394A1
:102FB000912C0CC0F6E08F1303C0D7011C9206C001
:102FC000BFEFDB1203C0F7011082D12CF1E08F16A6
:102FD000910409F40ACF0E94E106DC01CB018419B7
:102FE0009509A609B709F80126A937A940AD51AD41
:102FF000281739074A075B0708F0F7CEC5010E947A
:103000006302F80184819581A681B7810196A11D93
:10301000B11D84839583A683B7830E94E106F801DE
:10302000FE966083718382839383F1E08F1691040F
:1030300009F056C080E590E00E9410096091E50318
:103040007091E603625F7F4FCE0101960E94B70543
:1030500044E050E0BE016D5F7F4F8FE090E00E9442
:103060008A076091E5037091E6036A5E7F4FCE01A7
:1030700001960E94B70544E050E0BE016D5F7F4FAE
:1030800081E090E00E948A076091E5037091E60379
:103090006E5E7F4FCE0101960E94B70544E050E07E
:1030A000BE016D5F7F4F85E090E00E948A070E941D
:1030B0000F096091E5037091E603625E7F4FCE01D8
:1030C00001960E94B7058B819C81AD81BE81809362
:1030D000E1039093E203A093E303B093E40305C0FC
:1030E000892809F472CE01C0FFCF89EC91E09A8360
:1030F00089831B821C821D821E8280E590E00E94D3
:10310000100944E050E0BE016D5F7F4F8FE090E01A
:103110000E945A070E940F0962E473E0CE010196F3
:103120000E94530569E072E082E493E00E9403107C
:103130001092B2041092B1041092B0041092AF0435
:103140001092AE041092AD048DE991E09093B40416
:103150008093B3049091A304963108F057C02DEBEF
:1031600030E03093AE042093AD042BE931E030938E
:10317000B0042093AF042CE231E03093B2042093EA
:10318000B10420916800983050F031E09E3008F48E
:1031900030E081E001C0880F3A95EAF701C084E091
:1031A000822B80936800983038F09E3040F0963142
:1031B00048F020E030E008C02DE630E005C02BE606
:1031C00030E002C02CE630E03093AB042093AA0438
:1031D000983030F481E001C0880F9A95EAF70EC06C
:1031E000292F30E09E3018F42850310902C02E50AB
:1031F000310981E001C0880F2A95EAF78093AC0479
:103200008091B3049091B4040197F1F78091B104D7
:103210009091B204892B21F18091B6029091B7026E
:1032200024E087399207E1F0009711F00E94111510
:103230008091B5048E7F8093B5041092B5021092F0
:10324000B40287E994E09093B7028093B602E091CC
:10325000AA04F091AB0490818091AC04892B808307
:103260008CE092E090938304809382048BE597E056
:10327000909385048093840488E591E190937B0486
:1032800080937A046CED75E080E090E00E94A706E0
:103290008FE192E00E9418104E0138E0830E911CDD
:1032A0001EEF212E33243A940E946B0D882331F0B7
:1032B0000E946B0D882309F49FC25EC1E7E0BE2E19
:1032C000F2E0CF2EAFE0DA2E0CEF1FEFB9ECEB2ED1
:1032D000B1E0FB2E0E946B0D8111EACF6CE272E02F
:1032E00082E493E00E9403100E946B0D8111C4C020
:1032F00060918204709183048091ED039091EE03BC
:103300004091840450918504DC01ED91FC9161159C
:10331000710521F00684F785E02D14C00484F5853D
:10332000E02DFA82E98240907E0450907F04609004
:103330008004709081044B825C826D827E82BE012B
:103340006F5F7F4F09958130910509F090C0909390
:10335000700480936F04E2E1F1E0DE0111968B2DA1
:1033600001900D928A95E1F7FE013196A4EFB3E04A
:1033700081918D93E815F905D9F7C092FB0310925E
:10338000FC03D092FD034FE050E06FEE73E08AE45F
:1033900092E00E94A00DAC01455051096FEE73E020
:1033A00080E10E94C10D0E94E10660937104709358
:1033B0007204809373049093740460937504709303
:1033C000760480937704909378048091ED03909134
:1033D000EE03DC01ED91FC910480F581E02D09956F
:1033E000892BD1F40E94E106409075045090760438
:1033F0006090770470907804DC01CB018419950902
:10340000A609B70988399A43A105B105F0F21093CE
:103410008904009388041FC0C4010E94320E0497DF
:10342000D1F48091F203811111C00E94E1066093F2
:1034300075047093760480937704909378041092C7
:103440007904109289041092880416C090E0909339
:103450008904809388048091ED039091EE03DC0150
:10346000ED91FC910288F389E02D099560C03092BE
:103470008904209288045BC08BE592E00E941810BA
:103480000E946B0D882301F145E050E06FEE73E080
:1034900085E692E00E94A00DA7E6B2E020E030E0D1
:1034A0004D91F901E80FF91FE351FC4F42832F5F63
:1034B0003F4F2C303105A1F7AC01495F5F4F6FEEF4
:1034C00073E080E30E94C10D0E946B0D882309F414
:1034D00001CF80916F0490917004019629F0909330
:1034E000700480936F0406C0E1E0F0E0F093700494
:1034F000E0936F0480916F04909170049093F403B3
:103500008093F50347E050E06FEE73E086E992E0C8
:103510000E94A00DFC01E351FC4F1282AC0144500B
:1035200051096FEE73E082E80E94C10DD3CE64E7CB
:1035300072E082E493E00E9403104091880450916D
:103540008904052E000C660B770B77FF05C082E41B
:1035500093E00E94741005C02AE082E493E00E9488
:103560002B1080E892E00E94181068E873E180E078
:1035700090E00E94A706AECE0E94E1066B017C019E
:103580008091750490917604A0917704B0917804AD
:10359000A7019601281B390B4A0B5B0BDA01C90105
:1035A00089399A43A105B105A8F4809171049091DD
:1035B0007204A0917304B0917404A7019601281BB2
:1035C000390B4A0B5B0BDA01C90189399A43A10512
:1035D000B105C8F1209179048091ED039091EE033B
:1035E000222371F02CEF3FEF30938904209388045D
:1035F000DC01ED91FC910288F389E02D0995FCC076
:1036000020EC2093EF031092F003DC01ED91FC918C
:103610000280F381E02D42E050E06FEE73E0099507
:10362000C0927104D0927204E0927304F092740418
:10363000C0927504D0927604E0927704F0927804F8
:1036400081E0809379048091ED039091EE03DC0199
:10365000ED91FC910480F581E02D0995892B09F409
:10366000CBC0CE0101960E94320E8C01892B09F449
:10367000C3C0C0927504D0927604E0927704F092B1
:1036800078047090EF03872D807F803309F099C014
:10369000E0917A04F0917B04FB87EA87EF2B09F431
:1036A000ABC04DB65EB6A981B0E0CD0183519C4F51
:1036B000FC01A380B12CBA2CAA248481A80EB11CD1
:1036C000C50101962DB73EB7281B390B0FB6F894EC
:1036D0003EBF0FBE2DBF8DB79EB70196BC0120E047
:1036E00030E02A153B0569F0A9014A0F5B1F4351E1
:1036F0005C4FFA014581FB014193BF012F5F3F4FB2
:10370000F0CFAC01420F531FFA011082F72DF67073
:10371000F987F23009F03FC05901AA0EBB1EB5016E
:1037200063517C4FFB01458150E0542F4427668153
:103730003A01660E711C4BEF5FEF4A1B5B0B421B9D
:10374000530B400F511FB5016C507C4FEA85FB8530
:10375000099580E48093EF0329852093F00370920C
:10376000F1036092F2038091ED039091EE03DC018E
:10377000ED91FC910280F381E02D44E050E06FEE8A
:1037800073E00995C0927104D0927204E0927304C0
:10379000F092740410C04DEF5FEF4A1B5B0B421BAD
:1037A000530B400F511F2A0F3B1FB9016E507C4F26
:1037B000EA85FB8509950FB6F8945EBE0FBE4DBE37
:1037C0001BC0803CA9F480ED8093EF031092F003BE
:1037D0008091ED039091EE03DC01ED91FC9102806C
:1037E000F381E02D42E050E06FEE73E0099504C0F4
:1037F000803D11F4109279040E94240555CD89EC86
:1038000091E09093C3048093C2041092C404109278
:10381000C5041092C6041092C7041092450310927A
:10382000440348EE53E060E070E040934603509359
:10383000470360934803709349032DE631E03093CA
:1038400043032093420325EC30E030934F03209351
:103850004E0324EC30E0309351032093500320ECCE
:1038600030E0309353032093520321EC30E0309347
:1038700055032093540322EC30E0309357032093F8
:10388000560326EC30E030935903209358031092EE
:103890005B0310925C0310925D0310925E039093A1
:1038A000C9048093C8041092CA041092CB041092E9
:1038B000CC041092CD049093CF048093CE04109248
:1038C000D0041092D1041092D2041092D304909399
:1038D000D5048093D4041092D6041092D704109289
:1038E000D8041092D9049093DB048093DA041092E8
:1038F000DC041092DD041092DE041092DF04909339
:10390000E0038093DF031092E1031092E203109230
:10391000E3031092E4039093E8038093E70310928B
:10392000E9031092EA031092EB031092EC039093D8
:10393000E1048093E0041092E2041092E3041092F8
:10394000E4041092E5049093E7048093E604109257
:10395000E8041092E9041092EA041092EB049093A8
:10396000BD048093BC041092BE041092BF04109258
:10397000C0041092C1049093B7048093B6048AE007
:103980008093B80483E28093B90483E18093BA04FE
:1039900086E18093BB0410929A041092990440939C
:1039A0009B0450939C0460939D0470939E0481EA51
:1039B00091E090939804809397041092AE04109233
:1039C000AD041092B0041092AF041092B2041092A1
:1039D000B1041092B4041092B3046091B5046E7FE8
:1039E0006D7F6093B5046695617081E0682789E01A
:1039F0000E941F0661E089E00E946B06E7EBF0E0A1
:103A0000E491E093A704E3EAF0E0E491F0E0EE0F44
:103A1000FF1FEA57FF4F859194919093A9048093DB
:103A2000A80460E088E00E946B068091B50481FDE7
:103A300004C061E088E00E941F0688E08093A30430
:103A4000E6EBF0E0E491E093A404E2EAF0E0E49134
:103A5000F0E0EE0FFF1FE057FF4F85919491909398
:103A6000A6048093A50410928D0410928C0488EE15
:103A700093E0A0E0B0E080938E0490938F04A09335
:103A80009004B09391048DE791E090938B04809320
:103A90008A0484E08093960489EC91E090937D04FD
:103AA00080937C0410927E0410927F041092800414
:103AB000109281048FEF9FEF909389048093880484
:103AC0008AE894E09093EE038093ED0310928704CC
:103AD00010928604089581EA91E09093980480936F
:103AE000970487E994E00C94111597FB072E16F4C0
:103AF000009407D077FD09D00E94901D07FC05D0E7
:103B00003EF4909581959F4F0895709561957F4FF4
:103B100008956927962769277827872778270895A2
:103B2000AA1BBB1B51E107C0AA1FBB1FA617B707E3
:103B300010F0A61BB70B881F991F5A95A9F78095FF
:103B40009095BC01CD010895EE0FFF1F0590F491F3
:103B5000E02D0994CF93DF938230910510F482E039
:103B600090E0E0912E05F0912F0520E030E0C0E0DC
:103B7000D0E0309711F14081518148175907C0F0CA
:103B80004817590761F482819381209719F09B832C
:103B90008A832BC090932F0580932E0526C0211574
:103BA000310519F04217530718F49A01BE01DF01DD
:103BB000EF010280F381E02DDCCF2115310509F101
:103BC000281B390B2430310590F412968D919C916D
:103BD00013976115710521F0FB019383828304C063
:103BE00090932F0580932E05FD01329644C0FD0170
:103BF000E20FF31F81939193225031092D933C934F
:103C00003AC020912C0530912D05232B41F42091B1
:103C10000A0130910B0130932D0520932C05209142
:103C20000801309109012115310541F42DB73EB746
:103C300040910C0150910D01241B350BE0912C0596
:103C4000F0912D05E217F307A0F42E1B3F0B281768
:103C5000390778F0AC014E5F5F4F2417350748F005
:103C60004E0F5F1F50932D0540932C058193919328
:103C700002C0E0E0F0E0CF01DF91CF9108950F9313
:103C80001F93CF93DF93009709F48CC0FC01329708
:103C90001382128200912E0510912F050115110536
:103CA00081F420813181820F931F20912C05309166
:103CB0002D052817390779F5F0932D05E0932C058C
:103CC00071C0D80140E050E0AE17BF0750F4129623
:103CD0002D913C911397AD012115310509F1D901C1
:103CE000F3CF9D01DA013383228360817181860FD6
:103CF000971F8217930769F4EC0128813981260FF9
:103D0000371F2E5F3F4F318320838A819B819383AE
:103D10008283452B29F4F0932F05E0932E0542C0B2
:103D20001396FC93EE931297ED01499159919E01E0
:103D3000240F351FE217F30771F480819181840FFE
:103D4000951F029611969C938E9382819381139670
:103D50009C938E931297E0E0F0E0D80112968D913B
:103D60009C911397009719F0F8018C01F6CF8D9173
:103D70009C9198012E5F3F4F820F931F20912C053D
:103D800030912D052817390769F4309729F41092DE
:103D90002F0510922E0502C01382128210932D055A
:103DA00000932C05DF91CF911F910F910895A0E012
:103DB000B0E0EDEDFEE10C949120EC01009721F4D0
:103DC000CB010E94AA1DB8C0FC01E60FF71F9C01A1
:103DD00022503109E217F30708F4ACC0D9010D9164
:103DE0001C91119706171707B0F00530110508F45C
:103DF0009FC0C80104978617970708F499C002501E
:103E00001109061B170B019311936D937C93CF013E
:103E10000E943F1E8DC05B01A01AB10A4C01800EAA
:103E2000911EA0912E05B0912F0540E050E0E12CAD
:103E3000F12C109709F44AC0A815B905D1F56D9079
:103E40007C901197630182E0C80ED11CCA14DB0478
:103E500080F1A3014A195B096A0182E0C80ED11CF6
:103E60001296BC9012971396AC91B5E0CB16D10484
:103E700040F0B282A38351834083D9016D937C9338
:103E80000AC00E5F1F4FC301800F911FF90191837C
:103E90008083EB2DFA2FE114F10431F0D701139652
:103EA000FC93EE93129744C0F0932F05E0932E05F8
:103EB0003FC08D919C9111974817590708F4AC01A8
:103EC0007D0112960D90BC91A02DB3CF80912C0551
:103ED00090912D0588159905E1F446175707C8F408
:103EE0008091080190910901009741F48DB79EB728
:103EF00040910C0150910D01841B950BE817F907B7
:103F0000C8F4F0932D05E0932C05F90171836083CB
:103F10000FC0CB010E94AA1D7C01009759F0A80197
:103F2000BE010E94B31FCE010E943F1EC70104C004
:103F3000CE0102C080E090E0CDB7DEB7EEE00C9499
:103F4000AD2081E090E0F8940C94F520FB01DC01B9
:103F500004C08D910190801921F441505040C8F760
:103F6000881B990B0895FB01DC0102C001900D92A2
:103F700041505040D8F70895FB01DC0101900D92AB
:103F80000020E1F708958F929F92AF92BF92CF9257
:103F9000DF92EF92FF92CF93DF93EC0168817981FA
:103FA0008A819B81611571058105910521F464E287
:103FB00079ED8BE597E02DE133EF41E050E00E9491
:103FC0005B2049015A019B01AC01A7EAB1E40E94C0
:103FD0007A206B017C01ACEEB4EFA50194010E9444
:103FE0008820DC01CB018C0D9D1DAE1DBF1DB7FFD0
:103FF00003C00197A109B04888839983AA83BB8332
:10400000BC01CD019F77DF91CF91FF90EF90DF90C2
:10401000CF90BF90AF909F908F9008950E94C31F44
:1040200008958EE091E00E94C31F089560930E01F1
:1040300070930F01809310019093110108951F93C5
:10404000FC0199278827BC01E89411911032E9F30B
:10405000193010F01E30C8F31B3251F01D3249F4F4
:10406000689406C00E944620610F711D811D911D3C
:10407000119110531A30B0F33EF4909580957095DD
:1040800061957F4F8F4F9F4F1F910895592F482F54
:10409000372F262F660F771F881F991F660F771FF0
:1040A000881F991F620F731F841F951F660F771F4C
:1040B000881F991F0895052E97FB1EF400940E94F7
:1040C000722057FD07D00E94C42007FC03D04EF495
:1040D0000C94722050954095309521953F4F4F4F4D
:1040E0005F4F089590958095709561957F4F8F4FA4
:1040F0009F4F08950E94E620A59F900DB49F900DBC
:10410000A49F800D911D11240895B7FF0C947A206F
:104110000E947A20821B930B08952F923F924F9218
:104120005F926F927F928F929F92AF92BF92CF9247
:10413000DF92EF92FF920F931F93CF93DF93CDB750
:10414000DEB7CA1BDB0B0FB6F894DEBF0FBECDBFC8
:1041500009942A88398848885F846E847D848C8499
:104160009B84AA84B984C884DF80EE80FD800C81A2
:104170001B81AA81B981CE0FD11D0FB6F894DEBF85
:104180000FBECDBFED010895A1E21A2EAA1BBB1BE5
:10419000FD010DC0AA1FBB1FEE1FFF1FA217B30713
:1041A000E407F50720F0A21BB30BE40BF50B661F29
:1041B000771F881F991F1A9469F7609570958095ED
:1041C00090959B01AC01BD01CF010895A29FB00164
:1041D000B39FC001A39F700D811D1124911DB29F3B
:1041E000700D811D1124911D089510E0C2E6D0E0EC
:1041F00004C0FE010E94A41D2196C336D107C9F751
:04420000F894FFCF60
:10420400DEEDBAFEFEED00C00000300580000100C6
:10421400000000044D51545404000000009D059D0D
:10422400059D059D059D059D059D059D059D059D7A
:10423400059D059D059D059D059D059D05000000A9
:10424400008E00B801A4003201D7008D00C10263C2
:1042540002AE03F001EE025F011301BC00AC00A842
:1042640000370301005E00000000000000BB0405ED
:104274000D840462047604020500000000C70813DC
:10428400090609EC08F000D6008709920C5B011AB4
:1042940004F603CE00E908E708C300DD08000000C7
:1042A40000CB10050D1F113711B210CA1000000009
:1042B400009D05050D9D059D059D059D05000000BE
:1042C400009D05050D000000005305000000009D41
:1042D40005696E697469616C697A696E672E2E2E40
:1042E400004661696C656420746F20636F6E666953
:1042F400677572652045746865726E6574207573A0
:10430400696E672044484350000D0A007465737455
:104314002E6D6F7371756974746F2E6F7267006997
:104324006E697469616C697A65642E0041747465A0
:104334006D7074696E67204D51545420636F6E6EB6
:10434400656374696F6E2E2E2E0061726475696EDA
:104354006F436C69656E7433323100636F6E6E65E2
:104364006374656400610068656C6C6F20736572CA
:10437400766572006661696C65642C2072633D0029
:104384002074727920616761696E20696E2035201E
:104394007365636F6E6473004D6573736167652045
:1043A40061727269766564205B005D200057495A2A
:0443B4006E657400BE
:107E0000112484B714BE81FFF0D085E080938100F7
:107E100082E08093C00088E18093C10086E0809377
:107E2000C20080E18093C4008EE0C9D0259A86E02C
:107E300020E33CEF91E0309385002093840096BBD3
:107E4000B09BFECF1D9AA8958150A9F7CC24DD24C4
:107E500088248394B5E0AB2EA1E19A2EF3E0BF2EE7
:107E6000A2D0813461F49FD0082FAFD0023811F036
:107E7000013811F484E001C083E08DD089C08234E0
:107E800011F484E103C0853419F485E0A6D080C0E4
:107E9000853579F488D0E82EFF2485D0082F10E0AE
:107EA000102F00270E291F29000F111F8ED06801E7
:107EB0006FC0863521F484E090D080E0DECF843638
:107EC00009F040C070D06FD0082F6DD080E0C81688
:107ED00080E7D80618F4F601B7BEE895C0E0D1E017
:107EE00062D089930C17E1F7F0E0CF16F0E7DF06D8
:107EF00018F0F601B7BEE89568D007B600FCFDCFD4
:107F0000A601A0E0B1E02C9130E011968C91119780
:107F100090E0982F8827822B932B1296FA010C0160
:107F200087BEE89511244E5F5F4FF1E0A038BF0790
:107F300051F7F601A7BEE89507B600FCFDCF97BE46
:107F4000E89526C08437B1F42ED02DD0F82E2BD052
:107F50003CD0F601EF2C8F010F5F1F4F84911BD097
:107F6000EA94F801C1F70894C11CD11CFA94CF0C13
:107F7000D11C0EC0853739F428D08EE10CD085E9AC
:107F80000AD08FE07ACF813511F488E018D01DD067
:107F900080E101D065CF982F8091C00085FFFCCF94
:107FA0009093C60008958091C00087FFFCCF809118
:107FB000C00084FD01C0A8958091C6000895E0E648
:107FC000F0E098E1908380830895EDDF803219F02E
:107FD00088E0F5DFFFCF84E1DECF1F93182FE3DFCA
:107FE0001150E9F7F2DF1F91089580E0E8DFEE27F6
:047FF000FF270994CA
:027FFE00040479
:0400000300007E007B
:00000001FF